{"contracts/Raffle.sol":{"Raffle":{"abi":[{"inputs":[{"internalType":"address","name":"vrfCoordinatorV2","type":"address"},{"internalType":"uint256","name":"entrancefee","type":"uint256"},{"internalType":"bytes32","name":"gasLane","type":"bytes32"},{"internalType":"uint16","name":"subscription","type":"uint16"},{"internalType":"uint32","name":"callbackGasLimit","type":"uint32"},{"internalType":"uint256","name":"interval","type":"uint256"}],"stateMutability":"nonpayable","type":"constructor"},{"inputs":[{"internalType":"address","name":"have","type":"address"},{"internalType":"address","name":"want","type":"address"}],"name":"OnlyCoordinatorCanFulfill","type":"error"},{"inputs":[],"name":"Raffle__NotEnoughtETH","type":"error"},{"inputs":[],"name":"Raffle__RaflleIsClosed","type":"error"},{"inputs":[],"name":"Raffle___WithdrawalFailed","type":"error"},{"inputs":[{"internalType":"uint256","name":"currentBalance","type":"uint256"},{"internalType":"uint256","name":"numberOfPlayers","type":"uint256"},{"internalType":"uint256","name":"raffleState","type":"uint256"}],"name":"Raffle__upKeepNotNeeded","type":"error"},{"anonymous":false,"inputs":[{"indexed":true,"internalType":"address","name":"player","type":"address"}],"name":"RaffleEnter","type":"event"},{"anonymous":false,"inputs":[{"indexed":true,"internalType":"uint256","name":"requestId","type":"uint256"}],"name":"RequestedRaffleWinner","type":"event"},{"anonymous":false,"inputs":[{"indexed":true,"internalType":"address[]","name":"winners","type":"address[]"}],"name":"RequestedRaffleWinners","type":"event"},{"inputs":[{"internalType":"bytes","name":"","type":"bytes"}],"name":"checkUpkeep","outputs":[{"internalType":"bool","name":"upKeepNeeded","type":"bool"},{"internalType":"bytes","name":"","type":"bytes"}],"stateMutability":"view","type":"function"},{"inputs":[],"name":"enterRaffle","outputs":[],"stateMutability":"payable","type":"function"},{"inputs":[],"name":"getEntranceFee","outputs":[{"internalType":"uint256","name":"","type":"uint256"}],"stateMutability":"view","type":"function"},{"inputs":[{"internalType":"uint256","name":"index","type":"uint256"}],"name":"getPlayers","outputs":[{"internalType":"address","name":"","type":"address"}],"stateMutability":"view","type":"function"},{"inputs":[],"name":"getRecentWinner","outputs":[{"internalType":"address","name":"","type":"address"}],"stateMutability":"view","type":"function"},{"inputs":[],"name":"getWinners","outputs":[{"internalType":"address[]","name":"","type":"address[]"}],"stateMutability":"view","type":"function"},{"inputs":[{"internalType":"bytes","name":"","type":"bytes"}],"name":"performUpkeep","outputs":[],"stateMutability":"nonpayable","type":"function"},{"inputs":[{"internalType":"uint256","name":"requestId","type":"uint256"},{"internalType":"uint256[]","name":"randomWords","type":"uint256[]"}],"name":"rawFulfillRandomWords","outputs":[],"stateMutability":"nonpayable","type":"function"}],"devdoc":{"kind":"dev","methods":{},"version":1},"evm":{"bytecode":{"linkReferences":{},"object":"6101606040523480156200001257600080fd5b506040516200197238038062001972833981810160405281019062000038919062000282565b858073ffffffffffffffffffffffffffffffffffffffff1660808173ffffffffffffffffffffffffffffffffffffffff1681525050508573ffffffffffffffffffffffffffffffffffffffff1660c08173ffffffffffffffffffffffffffffffffffffffff16815250508460a081815250508360e081815250508261ffff166101008161ffff16815250508163ffffffff166101208163ffffffff16815250506000600260146101000a81548160ff021916908360018111156200010157620001006200031e565b5b0217905550426003819055508061014081815250505050505050506200034d565b600080fd5b600073ffffffffffffffffffffffffffffffffffffffff82169050919050565b6000620001548262000127565b9050919050565b620001668162000147565b81146200017257600080fd5b50565b60008151905062000186816200015b565b92915050565b6000819050919050565b620001a1816200018c565b8114620001ad57600080fd5b50565b600081519050620001c18162000196565b92915050565b6000819050919050565b620001dc81620001c7565b8114620001e857600080fd5b50565b600081519050620001fc81620001d1565b92915050565b600061ffff82169050919050565b6200021b8162000202565b81146200022757600080fd5b50565b6000815190506200023b8162000210565b92915050565b600063ffffffff82169050919050565b6200025c8162000241565b81146200026857600080fd5b50565b6000815190506200027c8162000251565b92915050565b60008060008060008060c08789031215620002a257620002a162000122565b5b6000620002b289828a0162000175565b9650506020620002c589828a01620001b0565b9550506040620002d889828a01620001eb565b9450506060620002eb89828a016200022a565b9350506080620002fe89828a016200026b565b92505060a06200031189828a01620001b0565b9150509295509295509295565b7f4e487b7100000000000000000000000000000000000000000000000000000000600052602160045260246000fd5b60805160a05160c05160e0516101005161012051610140516115bc620003b660003960006106fa0152600061058d0152600061056a015260006105490152600061050d0152600081816101dc015261032f015260008181610202015261025601526115bc6000f3fe60806040526004361061007b5760003560e01c8063460e20491161004e578063460e204914610107578063473f1ddc146101445780636e04ff0d1461016f578063df15c37e146101ad5761007b565b806309bc33a7146100805780631fe543e3146100ab5780632cfcc539146100d45780634585e33b146100de575b600080fd5b34801561008c57600080fd5b506100956101d8565b6040516100a29190610b68565b60405180910390f35b3480156100b757600080fd5b506100d260048036038101906100cd9190610d1c565b610200565b005b6100dc6102c0565b005b3480156100ea57600080fd5b5061010560048036038101906101009190610dd3565b61042f565b005b34801561011357600080fd5b5061012e60048036038101906101299190610e20565b610646565b60405161013b9190610e8e565b60405180910390f35b34801561015057600080fd5b5061015961068d565b6040516101669190610e8e565b60405180910390f35b34801561017b57600080fd5b5061019660048036038101906101919190610f5e565b6106b7565b6040516101a4929190611041565b60405180910390f35b3480156101b957600080fd5b506101c2610764565b6040516101cf919061112f565b60405180910390f35b60007f0000000000000000000000000000000000000000000000000000000000000000905090565b7f000000000000000000000000000000000000000000000000000000000000000073ffffffffffffffffffffffffffffffffffffffff163373ffffffffffffffffffffffffffffffffffffffff16146102b257337f00000000000000000000000000000000000000000000000000000000000000006040517f1cf993f40000000000000000000000000000000000000000000000000000000081526004016102a9929190611151565b60405180910390fd5b6102bc82826107f2565b5050565b600060018111156102d4576102d361117a565b5b600260149054906101000a900460ff1660018111156102f6576102f561117a565b5b1461032d576040517fe64195df00000000000000000000000000000000000000000000000000000000815260040160405180910390fd5b7f0000000000000000000000000000000000000000000000000000000000000000341015610387576040517f3284cf4500000000000000000000000000000000000000000000000000000000815260040160405180910390fd5b6000339080600181540180825580915050600190039060005260206000200160009091909190916101000a81548173ffffffffffffffffffffffffffffffffffffffff021916908373ffffffffffffffffffffffffffffffffffffffff1602179055503373ffffffffffffffffffffffffffffffffffffffff167f0805e1d667bddb8a95f0f09880cf94f403fb596ce79928d9f29b74203ba284d460405160405180910390a2565b600061046f6040518060400160405280600181526020017f20000000000000000000000000000000000000000000000000000000000000008152506106b7565b509050806104de5747600080549050600260149054906101000a900460ff1660018111156104a05761049f61117a565b5b6040517f43df4e3d0000000000000000000000000000000000000000000000000000000081526004016104d5939291906111a9565b60405180910390fd5b6001600260146101000a81548160ff021916908360018111156105045761050361117a565b5b021790555060007f000000000000000000000000000000000000000000000000000000000000000073ffffffffffffffffffffffffffffffffffffffff16635d3b1d307f00000000000000000000000000000000000000000000000000000000000000007f000000000000000000000000000000000000000000000000000000000000000060037f000000000000000000000000000000000000000000000000000000000000000060016040518663ffffffff1660e01b81526004016105ce959493929190611284565b6020604051808303816000875af11580156105ed573d6000803e3d6000fd5b505050506040513d601f19601f8201168201806040525081019061061191906112ec565b9050807fcd6e45c8998311cab7e9d4385596cac867e20a0587194b954fa3a731c93ce78b60405160405180910390a250505050565b600080828154811061065b5761065a611319565b5b9060005260206000200160009054906101000a900473ffffffffffffffffffffffffffffffffffffffff169050919050565b6000600260009054906101000a900473ffffffffffffffffffffffffffffffffffffffff16905090565b600060606000600260149054906101000a900460ff1660018111156106df576106de61117a565b5b600060018111156106f3576106f261117a565b5b14905060007f0000000000000000000000000000000000000000000000000000000000000000600354426107279190611377565b119050600080600080549050119050600080471190508380156107475750825b80156107505750815b80156107595750805b955050505050915091565b606060018054806020026020016040519081016040528092919081815260200182805480156107e857602002820191906000526020600020905b8160009054906101000a900473ffffffffffffffffffffffffffffffffffffffff1673ffffffffffffffffffffffffffffffffffffffff168152602001906001019080831161079e575b5050505050905090565b600080805490508260008151811061080d5761080c611319565b5b602002602001015161081f91906113da565b9050600080828154811061083657610835611319565b5b9060005260206000200160009054906101000a900473ffffffffffffffffffffffffffffffffffffffff16905080600260006101000a81548173ffffffffffffffffffffffffffffffffffffffff021916908373ffffffffffffffffffffffffffffffffffffffff1602179055506000600260146101000a81548160ff021916908360018111156108ca576108c961117a565b5b0217905550600067ffffffffffffffff8111156108ea576108e9610bd9565b5b6040519080825280602002602001820160405280156109185781602001602082028036833780820191505090505b506000908051906020019061092e929190610aa8565b504260038190555060008173ffffffffffffffffffffffffffffffffffffffff164760405161095c9061143c565b60006040518083038185875af1925050503d8060008114610999576040519150601f19603f3d011682016040523d82523d6000602084013e61099e565b606091505b50509050806109d9576040517fef3279bc00000000000000000000000000000000000000000000000000000000815260040160405180910390fd5b6001600260009054906101000a900473ffffffffffffffffffffffffffffffffffffffff169080600181540180825580915050600190039060005260206000200160009091909190916101000a81548173ffffffffffffffffffffffffffffffffffffffff021916908373ffffffffffffffffffffffffffffffffffffffff1602179055506001604051610a6d919061156f565b60405180910390207f25f41bb500436b60823d3ac90c8445e63b823240530d3f308dc7202a3692092860405160405180910390a25050505050565b828054828255906000526020600020908101928215610b21579160200282015b82811115610b205782518260006101000a81548173ffffffffffffffffffffffffffffffffffffffff021916908373ffffffffffffffffffffffffffffffffffffffff16021790555091602001919060010190610ac8565b5b509050610b2e9190610b32565b5090565b5b80821115610b4b576000816000905550600101610b33565b5090565b6000819050919050565b610b6281610b4f565b82525050565b6000602082019050610b7d6000830184610b59565b92915050565b6000604051905090565b600080fd5b600080fd5b610ba081610b4f565b8114610bab57600080fd5b50565b600081359050610bbd81610b97565b92915050565b600080fd5b6000601f19601f8301169050919050565b7f4e487b7100000000000000000000000000000000000000000000000000000000600052604160045260246000fd5b610c1182610bc8565b810181811067ffffffffffffffff82111715610c3057610c2f610bd9565b5b80604052505050565b6000610c43610b83565b9050610c4f8282610c08565b919050565b600067ffffffffffffffff821115610c6f57610c6e610bd9565b5b602082029050602081019050919050565b600080fd5b6000610c98610c9384610c54565b610c39565b90508083825260208201905060208402830185811115610cbb57610cba610c80565b5b835b81811015610ce45780610cd08882610bae565b845260208401935050602081019050610cbd565b5050509392505050565b600082601f830112610d0357610d02610bc3565b5b8135610d13848260208601610c85565b91505092915050565b60008060408385031215610d3357610d32610b8d565b5b6000610d4185828601610bae565b925050602083013567ffffffffffffffff811115610d6257610d61610b92565b5b610d6e85828601610cee565b9150509250929050565b600080fd5b60008083601f840112610d9357610d92610bc3565b5b8235905067ffffffffffffffff811115610db057610daf610d78565b5b602083019150836001820283011115610dcc57610dcb610c80565b5b9250929050565b60008060208385031215610dea57610de9610b8d565b5b600083013567ffffffffffffffff811115610e0857610e07610b92565b5b610e1485828601610d7d565b92509250509250929050565b600060208284031215610e3657610e35610b8d565b5b6000610e4484828501610bae565b91505092915050565b600073ffffffffffffffffffffffffffffffffffffffff82169050919050565b6000610e7882610e4d565b9050919050565b610e8881610e6d565b82525050565b6000602082019050610ea36000830184610e7f565b92915050565b600080fd5b600067ffffffffffffffff821115610ec957610ec8610bd9565b5b610ed282610bc8565b9050602081019050919050565b82818337600083830152505050565b6000610f01610efc84610eae565b610c39565b905082815260208101848484011115610f1d57610f1c610ea9565b5b610f28848285610edf565b509392505050565b600082601f830112610f4557610f44610bc3565b5b8135610f55848260208601610eee565b91505092915050565b600060208284031215610f7457610f73610b8d565b5b600082013567ffffffffffffffff811115610f9257610f91610b92565b5b610f9e84828501610f30565b91505092915050565b60008115159050919050565b610fbc81610fa7565b82525050565b600081519050919050565b600082825260208201905092915050565b60005b83811015610ffc578082015181840152602081019050610fe1565b60008484015250505050565b600061101382610fc2565b61101d8185610fcd565b935061102d818560208601610fde565b61103681610bc8565b840191505092915050565b60006040820190506110566000830185610fb3565b81810360208301526110688184611008565b90509392505050565b600081519050919050565b600082825260208201905092915050565b6000819050602082019050919050565b6110a681610e6d565b82525050565b60006110b8838361109d565b60208301905092915050565b6000602082019050919050565b60006110dc82611071565b6110e6818561107c565b93506110f18361108d565b8060005b8381101561112257815161110988826110ac565b9750611114836110c4565b9250506001810190506110f5565b5085935050505092915050565b6000602082019050818103600083015261114981846110d1565b905092915050565b60006040820190506111666000830185610e7f565b6111736020830184610e7f565b9392505050565b7f4e487b7100000000000000000000000000000000000000000000000000000000600052602160045260246000fd5b60006060820190506111be6000830186610b59565b6111cb6020830185610b59565b6111d86040830184610b59565b949350505050565b6000819050919050565b6111f3816111e0565b82525050565b600061ffff82169050919050565b600067ffffffffffffffff82169050919050565b6000819050919050565b600061124061123b611236846111f9565b61121b565b611207565b9050919050565b61125081611225565b82525050565b61125f816111f9565b82525050565b600063ffffffff82169050919050565b61127e81611265565b82525050565b600060a08201905061129960008301886111ea565b6112a66020830187611247565b6112b36040830186611256565b6112c06060830185611275565b6112cd6080830184611275565b9695505050505050565b6000815190506112e681610b97565b92915050565b60006020828403121561130257611301610b8d565b5b6000611310848285016112d7565b91505092915050565b7f4e487b7100000000000000000000000000000000000000000000000000000000600052603260045260246000fd5b7f4e487b7100000000000000000000000000000000000000000000000000000000600052601160045260246000fd5b600061138282610b4f565b915061138d83610b4f565b92508282039050818111156113a5576113a4611348565b5b92915050565b7f4e487b7100000000000000000000000000000000000000000000000000000000600052601260045260246000fd5b60006113e582610b4f565b91506113f083610b4f565b925082611400576113ff6113ab565b5b828206905092915050565b600081905092915050565b50565b600061142660008361140b565b915061143182611416565b600082019050919050565b600061144782611419565b9150819050919050565b600081549050919050565b600081905092915050565b60008190508160005260206000209050919050565b61148581610e6d565b82525050565b6000611497838361147c565b60208301905092915050565b60008160001c9050919050565b600073ffffffffffffffffffffffffffffffffffffffff82169050919050565b60006114e36114de836114a3565b6114b0565b9050919050565b60006114f682546114d0565b9050919050565b6000600182019050919050565b600061151582611451565b61151f818561145c565b935061152a83611467565b8060005b838110156115625761153f826114ea565b611549888261148b565b9750611554836114fd565b92505060018101905061152e565b5085935050505092915050565b600061157b828461150a565b91508190509291505056fea2646970667358221220273b6acc5260ee50307001d8d7bd098ad4d8c77865c4fee4127e41500fe8cc7b64736f6c63430008130033","opcodes":"PUSH2 0x160 PUSH1 0x40 MSTORE CALLVALUE DUP1 ISZERO PUSH3 0x12 JUMPI PUSH1 0x0 DUP1 REVERT JUMPDEST POP PUSH1 0x40 MLOAD PUSH3 0x1972 CODESIZE SUB DUP1 PUSH3 0x1972 DUP4 CODECOPY DUP2 DUP2 ADD PUSH1 0x40 MSTORE DUP2 ADD SWAP1 PUSH3 0x38 SWAP2 SWAP1 PUSH3 0x282 JUMP JUMPDEST DUP6 DUP1 PUSH20 0xFFFFFFFFFFFFFFFFFFFFFFFFFFFFFFFFFFFFFFFF AND PUSH1 0x80 DUP2 PUSH20 0xFFFFFFFFFFFFFFFFFFFFFFFFFFFFFFFFFFFFFFFF AND DUP2 MSTORE POP POP POP DUP6 PUSH20 0xFFFFFFFFFFFFFFFFFFFFFFFFFFFFFFFFFFFFFFFF AND PUSH1 0xC0 DUP2 PUSH20 0xFFFFFFFFFFFFFFFFFFFFFFFFFFFFFFFFFFFFFFFF AND DUP2 MSTORE POP POP DUP5 PUSH1 0xA0 DUP2 DUP2 MSTORE POP POP DUP4 PUSH1 0xE0 DUP2 DUP2 MSTORE POP POP DUP3 PUSH2 0xFFFF AND PUSH2 0x100 DUP2 PUSH2 0xFFFF AND DUP2 MSTORE POP POP DUP2 PUSH4 0xFFFFFFFF AND PUSH2 0x120 DUP2 PUSH4 0xFFFFFFFF AND DUP2 MSTORE POP POP PUSH1 0x0 PUSH1 0x2 PUSH1 0x14 PUSH2 0x100 EXP DUP2 SLOAD DUP2 PUSH1 0xFF MUL NOT AND SWAP1 DUP4 PUSH1 0x1 DUP2 GT ISZERO PUSH3 0x101 JUMPI PUSH3 0x100 PUSH3 0x31E JUMP JUMPDEST JUMPDEST MUL OR SWAP1 SSTORE POP TIMESTAMP PUSH1 0x3 DUP2 SWAP1 SSTORE POP DUP1 PUSH2 0x140 DUP2 DUP2 MSTORE POP POP POP POP POP POP POP POP PUSH3 0x34D JUMP JUMPDEST PUSH1 0x0 DUP1 REVERT JUMPDEST PUSH1 0x0 PUSH20 0xFFFFFFFFFFFFFFFFFFFFFFFFFFFFFFFFFFFFFFFF DUP3 AND SWAP1 POP SWAP2 SWAP1 POP JUMP JUMPDEST PUSH1 0x0 PUSH3 0x154 DUP3 PUSH3 0x127 JUMP JUMPDEST SWAP1 POP SWAP2 SWAP1 POP JUMP JUMPDEST PUSH3 0x166 DUP2 PUSH3 0x147 JUMP JUMPDEST DUP2 EQ PUSH3 0x172 JUMPI PUSH1 0x0 DUP1 REVERT JUMPDEST POP JUMP JUMPDEST PUSH1 0x0 DUP2 MLOAD SWAP1 POP PUSH3 0x186 DUP2 PUSH3 0x15B JUMP JUMPDEST SWAP3 SWAP2 POP POP JUMP JUMPDEST PUSH1 0x0 DUP2 SWAP1 POP SWAP2 SWAP1 POP JUMP JUMPDEST PUSH3 0x1A1 DUP2 PUSH3 0x18C JUMP JUMPDEST DUP2 EQ PUSH3 0x1AD JUMPI PUSH1 0x0 DUP1 REVERT JUMPDEST POP JUMP JUMPDEST PUSH1 0x0 DUP2 MLOAD SWAP1 POP PUSH3 0x1C1 DUP2 PUSH3 0x196 JUMP JUMPDEST SWAP3 SWAP2 POP POP JUMP JUMPDEST PUSH1 0x0 DUP2 SWAP1 POP SWAP2 SWAP1 POP JUMP JUMPDEST PUSH3 0x1DC DUP2 PUSH3 0x1C7 JUMP JUMPDEST DUP2 EQ PUSH3 0x1E8 JUMPI PUSH1 0x0 DUP1 REVERT JUMPDEST POP JUMP JUMPDEST PUSH1 0x0 DUP2 MLOAD SWAP1 POP PUSH3 0x1FC DUP2 PUSH3 0x1D1 JUMP JUMPDEST SWAP3 SWAP2 POP POP JUMP JUMPDEST PUSH1 0x0 PUSH2 0xFFFF DUP3 AND SWAP1 POP SWAP2 SWAP1 POP JUMP JUMPDEST PUSH3 0x21B DUP2 PUSH3 0x202 JUMP JUMPDEST DUP2 EQ PUSH3 0x227 JUMPI PUSH1 0x0 DUP1 REVERT JUMPDEST POP JUMP JUMPDEST PUSH1 0x0 DUP2 MLOAD SWAP1 POP PUSH3 0x23B DUP2 PUSH3 0x210 JUMP JUMPDEST SWAP3 SWAP2 POP POP JUMP JUMPDEST PUSH1 0x0 PUSH4 0xFFFFFFFF DUP3 AND SWAP1 POP SWAP2 SWAP1 POP JUMP JUMPDEST PUSH3 0x25C DUP2 PUSH3 0x241 JUMP JUMPDEST DUP2 EQ PUSH3 0x268 JUMPI PUSH1 0x0 DUP1 REVERT JUMPDEST POP JUMP JUMPDEST PUSH1 0x0 DUP2 MLOAD SWAP1 POP PUSH3 0x27C DUP2 PUSH3 0x251 JUMP JUMPDEST SWAP3 SWAP2 POP POP JUMP JUMPDEST PUSH1 0x0 DUP1 PUSH1 0x0 DUP1 PUSH1 0x0 DUP1 PUSH1 0xC0 DUP8 DUP10 SUB SLT ISZERO PUSH3 0x2A2 JUMPI PUSH3 0x2A1 PUSH3 0x122 JUMP JUMPDEST JUMPDEST PUSH1 0x0 PUSH3 0x2B2 DUP10 DUP3 DUP11 ADD PUSH3 0x175 JUMP JUMPDEST SWAP7 POP POP PUSH1 0x20 PUSH3 0x2C5 DUP10 DUP3 DUP11 ADD PUSH3 0x1B0 JUMP JUMPDEST SWAP6 POP POP PUSH1 0x40 PUSH3 0x2D8 DUP10 DUP3 DUP11 ADD PUSH3 0x1EB JUMP JUMPDEST SWAP5 POP POP PUSH1 0x60 PUSH3 0x2EB DUP10 DUP3 DUP11 ADD PUSH3 0x22A JUMP JUMPDEST SWAP4 POP POP PUSH1 0x80 PUSH3 0x2FE DUP10 DUP3 DUP11 ADD PUSH3 0x26B JUMP JUMPDEST SWAP3 POP POP PUSH1 0xA0 PUSH3 0x311 DUP10 DUP3 DUP11 ADD PUSH3 0x1B0 JUMP JUMPDEST SWAP2 POP POP SWAP3 SWAP6 POP SWAP3 SWAP6 POP SWAP3 SWAP6 JUMP JUMPDEST PUSH32 0x4E487B7100000000000000000000000000000000000000000000000000000000 PUSH1 0x0 MSTORE PUSH1 0x21 PUSH1 0x4 MSTORE PUSH1 0x24 PUSH1 0x0 REVERT JUMPDEST PUSH1 0x80 MLOAD PUSH1 0xA0 MLOAD PUSH1 0xC0 MLOAD PUSH1 0xE0 MLOAD PUSH2 0x100 MLOAD PUSH2 0x120 MLOAD PUSH2 0x140 MLOAD PUSH2 0x15BC PUSH3 0x3B6 PUSH1 0x0 CODECOPY PUSH1 0x0 PUSH2 0x6FA ADD MSTORE PUSH1 0x0 PUSH2 0x58D ADD MSTORE PUSH1 0x0 PUSH2 0x56A ADD MSTORE PUSH1 0x0 PUSH2 0x549 ADD MSTORE PUSH1 0x0 PUSH2 0x50D ADD MSTORE PUSH1 0x0 DUP2 DUP2 PUSH2 0x1DC ADD MSTORE PUSH2 0x32F ADD MSTORE PUSH1 0x0 DUP2 DUP2 PUSH2 0x202 ADD MSTORE PUSH2 0x256 ADD MSTORE PUSH2 0x15BC PUSH1 0x0 RETURN INVALID PUSH1 0x80 PUSH1 0x40 MSTORE PUSH1 0x4 CALLDATASIZE LT PUSH2 0x7B JUMPI PUSH1 0x0 CALLDATALOAD PUSH1 0xE0 SHR DUP1 PUSH4 0x460E2049 GT PUSH2 0x4E JUMPI DUP1 PUSH4 0x460E2049 EQ PUSH2 0x107 JUMPI DUP1 PUSH4 0x473F1DDC EQ PUSH2 0x144 JUMPI DUP1 PUSH4 0x6E04FF0D EQ PUSH2 0x16F JUMPI DUP1 PUSH4 0xDF15C37E EQ PUSH2 0x1AD JUMPI PUSH2 0x7B JUMP JUMPDEST DUP1 PUSH4 0x9BC33A7 EQ PUSH2 0x80 JUMPI DUP1 PUSH4 0x1FE543E3 EQ PUSH2 0xAB JUMPI DUP1 PUSH4 0x2CFCC539 EQ PUSH2 0xD4 JUMPI DUP1 PUSH4 0x4585E33B EQ PUSH2 0xDE JUMPI JUMPDEST PUSH1 0x0 DUP1 REVERT JUMPDEST CALLVALUE DUP1 ISZERO PUSH2 0x8C JUMPI PUSH1 0x0 DUP1 REVERT JUMPDEST POP PUSH2 0x95 PUSH2 0x1D8 JUMP JUMPDEST PUSH1 0x40 MLOAD PUSH2 0xA2 SWAP2 SWAP1 PUSH2 0xB68 JUMP JUMPDEST PUSH1 0x40 MLOAD DUP1 SWAP2 SUB SWAP1 RETURN JUMPDEST CALLVALUE DUP1 ISZERO PUSH2 0xB7 JUMPI PUSH1 0x0 DUP1 REVERT JUMPDEST POP PUSH2 0xD2 PUSH1 0x4 DUP1 CALLDATASIZE SUB DUP2 ADD SWAP1 PUSH2 0xCD SWAP2 SWAP1 PUSH2 0xD1C JUMP JUMPDEST PUSH2 0x200 JUMP JUMPDEST STOP JUMPDEST PUSH2 0xDC PUSH2 0x2C0 JUMP JUMPDEST STOP JUMPDEST CALLVALUE DUP1 ISZERO PUSH2 0xEA JUMPI PUSH1 0x0 DUP1 REVERT JUMPDEST POP PUSH2 0x105 PUSH1 0x4 DUP1 CALLDATASIZE SUB DUP2 ADD SWAP1 PUSH2 0x100 SWAP2 SWAP1 PUSH2 0xDD3 JUMP JUMPDEST PUSH2 0x42F JUMP JUMPDEST STOP JUMPDEST CALLVALUE DUP1 ISZERO PUSH2 0x113 JUMPI PUSH1 0x0 DUP1 REVERT JUMPDEST POP PUSH2 0x12E PUSH1 0x4 DUP1 CALLDATASIZE SUB DUP2 ADD SWAP1 PUSH2 0x129 SWAP2 SWAP1 PUSH2 0xE20 JUMP JUMPDEST PUSH2 0x646 JUMP JUMPDEST PUSH1 0x40 MLOAD PUSH2 0x13B SWAP2 SWAP1 PUSH2 0xE8E JUMP JUMPDEST PUSH1 0x40 MLOAD DUP1 SWAP2 SUB SWAP1 RETURN JUMPDEST CALLVALUE DUP1 ISZERO PUSH2 0x150 JUMPI PUSH1 0x0 DUP1 REVERT JUMPDEST POP PUSH2 0x159 PUSH2 0x68D JUMP JUMPDEST PUSH1 0x40 MLOAD PUSH2 0x166 SWAP2 SWAP1 PUSH2 0xE8E JUMP JUMPDEST PUSH1 0x40 MLOAD DUP1 SWAP2 SUB SWAP1 RETURN JUMPDEST CALLVALUE DUP1 ISZERO PUSH2 0x17B JUMPI PUSH1 0x0 DUP1 REVERT JUMPDEST POP PUSH2 0x196 PUSH1 0x4 DUP1 CALLDATASIZE SUB DUP2 ADD SWAP1 PUSH2 0x191 SWAP2 SWAP1 PUSH2 0xF5E JUMP JUMPDEST PUSH2 0x6B7 JUMP JUMPDEST PUSH1 0x40 MLOAD PUSH2 0x1A4 SWAP3 SWAP2 SWAP1 PUSH2 0x1041 JUMP JUMPDEST PUSH1 0x40 MLOAD DUP1 SWAP2 SUB SWAP1 RETURN JUMPDEST CALLVALUE DUP1 ISZERO PUSH2 0x1B9 JUMPI PUSH1 0x0 DUP1 REVERT JUMPDEST POP PUSH2 0x1C2 PUSH2 0x764 JUMP JUMPDEST PUSH1 0x40 MLOAD PUSH2 0x1CF SWAP2 SWAP1 PUSH2 0x112F JUMP JUMPDEST PUSH1 0x40 MLOAD DUP1 SWAP2 SUB SWAP1 RETURN JUMPDEST PUSH1 0x0 PUSH32 0x0 SWAP1 POP SWAP1 JUMP JUMPDEST PUSH32 0x0 PUSH20 0xFFFFFFFFFFFFFFFFFFFFFFFFFFFFFFFFFFFFFFFF AND CALLER PUSH20 0xFFFFFFFFFFFFFFFFFFFFFFFFFFFFFFFFFFFFFFFF AND EQ PUSH2 0x2B2 JUMPI CALLER PUSH32 0x0 PUSH1 0x40 MLOAD PUSH32 0x1CF993F400000000000000000000000000000000000000000000000000000000 DUP2 MSTORE PUSH1 0x4 ADD PUSH2 0x2A9 SWAP3 SWAP2 SWAP1 PUSH2 0x1151 JUMP JUMPDEST PUSH1 0x40 MLOAD DUP1 SWAP2 SUB SWAP1 REVERT JUMPDEST PUSH2 0x2BC DUP3 DUP3 PUSH2 0x7F2 JUMP JUMPDEST POP POP JUMP JUMPDEST PUSH1 0x0 PUSH1 0x1 DUP2 GT ISZERO PUSH2 0x2D4 JUMPI PUSH2 0x2D3 PUSH2 0x117A JUMP JUMPDEST JUMPDEST PUSH1 0x2 PUSH1 0x14 SWAP1 SLOAD SWAP1 PUSH2 0x100 EXP SWAP1 DIV PUSH1 0xFF AND PUSH1 0x1 DUP2 GT ISZERO PUSH2 0x2F6 JUMPI PUSH2 0x2F5 PUSH2 0x117A JUMP JUMPDEST JUMPDEST EQ PUSH2 0x32D JUMPI PUSH1 0x40 MLOAD PUSH32 0xE64195DF00000000000000000000000000000000000000000000000000000000 DUP2 MSTORE PUSH1 0x4 ADD PUSH1 0x40 MLOAD DUP1 SWAP2 SUB SWAP1 REVERT JUMPDEST PUSH32 0x0 CALLVALUE LT ISZERO PUSH2 0x387 JUMPI PUSH1 0x40 MLOAD PUSH32 0x3284CF4500000000000000000000000000000000000000000000000000000000 DUP2 MSTORE PUSH1 0x4 ADD PUSH1 0x40 MLOAD DUP1 SWAP2 SUB SWAP1 REVERT JUMPDEST PUSH1 0x0 CALLER SWAP1 DUP1 PUSH1 0x1 DUP2 SLOAD ADD DUP1 DUP3 SSTORE DUP1 SWAP2 POP POP PUSH1 0x1 SWAP1 SUB SWAP1 PUSH1 0x0 MSTORE PUSH1 0x20 PUSH1 0x0 KECCAK256 ADD PUSH1 0x0 SWAP1 SWAP2 SWAP1 SWAP2 SWAP1 SWAP2 PUSH2 0x100 EXP DUP2 SLOAD DUP2 PUSH20 0xFFFFFFFFFFFFFFFFFFFFFFFFFFFFFFFFFFFFFFFF MUL NOT AND SWAP1 DUP4 PUSH20 0xFFFFFFFFFFFFFFFFFFFFFFFFFFFFFFFFFFFFFFFF AND MUL OR SWAP1 SSTORE POP CALLER PUSH20 0xFFFFFFFFFFFFFFFFFFFFFFFFFFFFFFFFFFFFFFFF AND PUSH32 0x805E1D667BDDB8A95F0F09880CF94F403FB596CE79928D9F29B74203BA284D4 PUSH1 0x40 MLOAD PUSH1 0x40 MLOAD DUP1 SWAP2 SUB SWAP1 LOG2 JUMP JUMPDEST PUSH1 0x0 PUSH2 0x46F PUSH1 0x40 MLOAD DUP1 PUSH1 0x40 ADD PUSH1 0x40 MSTORE DUP1 PUSH1 0x1 DUP2 MSTORE PUSH1 0x20 ADD PUSH32 0x2000000000000000000000000000000000000000000000000000000000000000 DUP2 MSTORE POP PUSH2 0x6B7 JUMP JUMPDEST POP SWAP1 POP DUP1 PUSH2 0x4DE JUMPI SELFBALANCE PUSH1 0x0 DUP1 SLOAD SWAP1 POP PUSH1 0x2 PUSH1 0x14 SWAP1 SLOAD SWAP1 PUSH2 0x100 EXP SWAP1 DIV PUSH1 0xFF AND PUSH1 0x1 DUP2 GT ISZERO PUSH2 0x4A0 JUMPI PUSH2 0x49F PUSH2 0x117A JUMP JUMPDEST JUMPDEST PUSH1 0x40 MLOAD PUSH32 0x43DF4E3D00000000000000000000000000000000000000000000000000000000 DUP2 MSTORE PUSH1 0x4 ADD PUSH2 0x4D5 SWAP4 SWAP3 SWAP2 SWAP1 PUSH2 0x11A9 JUMP JUMPDEST PUSH1 0x40 MLOAD DUP1 SWAP2 SUB SWAP1 REVERT JUMPDEST PUSH1 0x1 PUSH1 0x2 PUSH1 0x14 PUSH2 0x100 EXP DUP2 SLOAD DUP2 PUSH1 0xFF MUL NOT AND SWAP1 DUP4 PUSH1 0x1 DUP2 GT ISZERO PUSH2 0x504 JUMPI PUSH2 0x503 PUSH2 0x117A JUMP JUMPDEST JUMPDEST MUL OR SWAP1 SSTORE POP PUSH1 0x0 PUSH32 0x0 PUSH20 0xFFFFFFFFFFFFFFFFFFFFFFFFFFFFFFFFFFFFFFFF AND PUSH4 0x5D3B1D30 PUSH32 0x0 PUSH32 0x0 PUSH1 0x3 PUSH32 0x0 PUSH1 0x1 PUSH1 0x40 MLOAD DUP7 PUSH4 0xFFFFFFFF AND PUSH1 0xE0 SHL DUP2 MSTORE PUSH1 0x4 ADD PUSH2 0x5CE SWAP6 SWAP5 SWAP4 SWAP3 SWAP2 SWAP1 PUSH2 0x1284 JUMP JUMPDEST PUSH1 0x20 PUSH1 0x40 MLOAD DUP1 DUP4 SUB DUP2 PUSH1 0x0 DUP8 GAS CALL ISZERO DUP1 ISZERO PUSH2 0x5ED JUMPI RETURNDATASIZE PUSH1 0x0 DUP1 RETURNDATACOPY RETURNDATASIZE PUSH1 0x0 REVERT JUMPDEST POP POP POP POP PUSH1 0x40 MLOAD RETURNDATASIZE PUSH1 0x1F NOT PUSH1 0x1F DUP3 ADD AND DUP3 ADD DUP1 PUSH1 0x40 MSTORE POP DUP2 ADD SWAP1 PUSH2 0x611 SWAP2 SWAP1 PUSH2 0x12EC JUMP JUMPDEST SWAP1 POP DUP1 PUSH32 0xCD6E45C8998311CAB7E9D4385596CAC867E20A0587194B954FA3A731C93CE78B PUSH1 0x40 MLOAD PUSH1 0x40 MLOAD DUP1 SWAP2 SUB SWAP1 LOG2 POP POP POP POP JUMP JUMPDEST PUSH1 0x0 DUP1 DUP3 DUP2 SLOAD DUP2 LT PUSH2 0x65B JUMPI PUSH2 0x65A PUSH2 0x1319 JUMP JUMPDEST JUMPDEST SWAP1 PUSH1 0x0 MSTORE PUSH1 0x20 PUSH1 0x0 KECCAK256 ADD PUSH1 0x0 SWAP1 SLOAD SWAP1 PUSH2 0x100 EXP SWAP1 DIV PUSH20 0xFFFFFFFFFFFFFFFFFFFFFFFFFFFFFFFFFFFFFFFF AND SWAP1 POP SWAP2 SWAP1 POP JUMP JUMPDEST PUSH1 0x0 PUSH1 0x2 PUSH1 0x0 SWAP1 SLOAD SWAP1 PUSH2 0x100 EXP SWAP1 DIV PUSH20 0xFFFFFFFFFFFFFFFFFFFFFFFFFFFFFFFFFFFFFFFF AND SWAP1 POP SWAP1 JUMP JUMPDEST PUSH1 0x0 PUSH1 0x60 PUSH1 0x0 PUSH1 0x2 PUSH1 0x14 SWAP1 SLOAD SWAP1 PUSH2 0x100 EXP SWAP1 DIV PUSH1 0xFF AND PUSH1 0x1 DUP2 GT ISZERO PUSH2 0x6DF JUMPI PUSH2 0x6DE PUSH2 0x117A JUMP JUMPDEST JUMPDEST PUSH1 0x0 PUSH1 0x1 DUP2 GT ISZERO PUSH2 0x6F3 JUMPI PUSH2 0x6F2 PUSH2 0x117A JUMP JUMPDEST JUMPDEST EQ SWAP1 POP PUSH1 0x0 PUSH32 0x0 PUSH1 0x3 SLOAD TIMESTAMP PUSH2 0x727 SWAP2 SWAP1 PUSH2 0x1377 JUMP JUMPDEST GT SWAP1 POP PUSH1 0x0 DUP1 PUSH1 0x0 DUP1 SLOAD SWAP1 POP GT SWAP1 POP PUSH1 0x0 DUP1 SELFBALANCE GT SWAP1 POP DUP4 DUP1 ISZERO PUSH2 0x747 JUMPI POP DUP3 JUMPDEST DUP1 ISZERO PUSH2 0x750 JUMPI POP DUP2 JUMPDEST DUP1 ISZERO PUSH2 0x759 JUMPI POP DUP1 JUMPDEST SWAP6 POP POP POP POP POP SWAP2 POP SWAP2 JUMP JUMPDEST PUSH1 0x60 PUSH1 0x1 DUP1 SLOAD DUP1 PUSH1 0x20 MUL PUSH1 0x20 ADD PUSH1 0x40 MLOAD SWAP1 DUP2 ADD PUSH1 0x40 MSTORE DUP1 SWAP3 SWAP2 SWAP1 DUP2 DUP2 MSTORE PUSH1 0x20 ADD DUP3 DUP1 SLOAD DUP1 ISZERO PUSH2 0x7E8 JUMPI PUSH1 0x20 MUL DUP3 ADD SWAP2 SWAP1 PUSH1 0x0 MSTORE PUSH1 0x20 PUSH1 0x0 KECCAK256 SWAP1 JUMPDEST DUP2 PUSH1 0x0 SWAP1 SLOAD SWAP1 PUSH2 0x100 EXP SWAP1 DIV PUSH20 0xFFFFFFFFFFFFFFFFFFFFFFFFFFFFFFFFFFFFFFFF AND PUSH20 0xFFFFFFFFFFFFFFFFFFFFFFFFFFFFFFFFFFFFFFFF AND DUP2 MSTORE PUSH1 0x20 ADD SWAP1 PUSH1 0x1 ADD SWAP1 DUP1 DUP4 GT PUSH2 0x79E JUMPI JUMPDEST POP POP POP POP POP SWAP1 POP SWAP1 JUMP JUMPDEST PUSH1 0x0 DUP1 DUP1 SLOAD SWAP1 POP DUP3 PUSH1 0x0 DUP2 MLOAD DUP2 LT PUSH2 0x80D JUMPI PUSH2 0x80C PUSH2 0x1319 JUMP JUMPDEST JUMPDEST PUSH1 0x20 MUL PUSH1 0x20 ADD ADD MLOAD PUSH2 0x81F SWAP2 SWAP1 PUSH2 0x13DA JUMP JUMPDEST SWAP1 POP PUSH1 0x0 DUP1 DUP3 DUP2 SLOAD DUP2 LT PUSH2 0x836 JUMPI PUSH2 0x835 PUSH2 0x1319 JUMP JUMPDEST JUMPDEST SWAP1 PUSH1 0x0 MSTORE PUSH1 0x20 PUSH1 0x0 KECCAK256 ADD PUSH1 0x0 SWAP1 SLOAD SWAP1 PUSH2 0x100 EXP SWAP1 DIV PUSH20 0xFFFFFFFFFFFFFFFFFFFFFFFFFFFFFFFFFFFFFFFF AND SWAP1 POP DUP1 PUSH1 0x2 PUSH1 0x0 PUSH2 0x100 EXP DUP2 SLOAD DUP2 PUSH20 0xFFFFFFFFFFFFFFFFFFFFFFFFFFFFFFFFFFFFFFFF MUL NOT AND SWAP1 DUP4 PUSH20 0xFFFFFFFFFFFFFFFFFFFFFFFFFFFFFFFFFFFFFFFF AND MUL OR SWAP1 SSTORE POP PUSH1 0x0 PUSH1 0x2 PUSH1 0x14 PUSH2 0x100 EXP DUP2 SLOAD DUP2 PUSH1 0xFF MUL NOT AND SWAP1 DUP4 PUSH1 0x1 DUP2 GT ISZERO PUSH2 0x8CA JUMPI PUSH2 0x8C9 PUSH2 0x117A JUMP JUMPDEST JUMPDEST MUL OR SWAP1 SSTORE POP PUSH1 0x0 PUSH8 0xFFFFFFFFFFFFFFFF DUP2 GT ISZERO PUSH2 0x8EA JUMPI PUSH2 0x8E9 PUSH2 0xBD9 JUMP JUMPDEST JUMPDEST PUSH1 0x40 MLOAD SWAP1 DUP1 DUP3 MSTORE DUP1 PUSH1 0x20 MUL PUSH1 0x20 ADD DUP3 ADD PUSH1 0x40 MSTORE DUP1 ISZERO PUSH2 0x918 JUMPI DUP2 PUSH1 0x20 ADD PUSH1 0x20 DUP3 MUL DUP1 CALLDATASIZE DUP4 CALLDATACOPY DUP1 DUP3 ADD SWAP2 POP POP SWAP1 POP JUMPDEST POP PUSH1 0x0 SWAP1 DUP1 MLOAD SWAP1 PUSH1 0x20 ADD SWAP1 PUSH2 0x92E SWAP3 SWAP2 SWAP1 PUSH2 0xAA8 JUMP JUMPDEST POP TIMESTAMP PUSH1 0x3 DUP2 SWAP1 SSTORE POP PUSH1 0x0 DUP2 PUSH20 0xFFFFFFFFFFFFFFFFFFFFFFFFFFFFFFFFFFFFFFFF AND SELFBALANCE PUSH1 0x40 MLOAD PUSH2 0x95C SWAP1 PUSH2 0x143C JUMP JUMPDEST PUSH1 0x0 PUSH1 0x40 MLOAD DUP1 DUP4 SUB DUP2 DUP6 DUP8 GAS CALL SWAP3 POP POP POP RETURNDATASIZE DUP1 PUSH1 0x0 DUP2 EQ PUSH2 0x999 JUMPI PUSH1 0x40 MLOAD SWAP2 POP PUSH1 0x1F NOT PUSH1 0x3F RETURNDATASIZE ADD AND DUP3 ADD PUSH1 0x40 MSTORE RETURNDATASIZE DUP3 MSTORE RETURNDATASIZE PUSH1 0x0 PUSH1 0x20 DUP5 ADD RETURNDATACOPY PUSH2 0x99E JUMP JUMPDEST PUSH1 0x60 SWAP2 POP JUMPDEST POP POP SWAP1 POP DUP1 PUSH2 0x9D9 JUMPI PUSH1 0x40 MLOAD PUSH32 0xEF3279BC00000000000000000000000000000000000000000000000000000000 DUP2 MSTORE PUSH1 0x4 ADD PUSH1 0x40 MLOAD DUP1 SWAP2 SUB SWAP1 REVERT JUMPDEST PUSH1 0x1 PUSH1 0x2 PUSH1 0x0 SWAP1 SLOAD SWAP1 PUSH2 0x100 EXP SWAP1 DIV PUSH20 0xFFFFFFFFFFFFFFFFFFFFFFFFFFFFFFFFFFFFFFFF AND SWAP1 DUP1 PUSH1 0x1 DUP2 SLOAD ADD DUP1 DUP3 SSTORE DUP1 SWAP2 POP POP PUSH1 0x1 SWAP1 SUB SWAP1 PUSH1 0x0 MSTORE PUSH1 0x20 PUSH1 0x0 KECCAK256 ADD PUSH1 0x0 SWAP1 SWAP2 SWAP1 SWAP2 SWAP1 SWAP2 PUSH2 0x100 EXP DUP2 SLOAD DUP2 PUSH20 0xFFFFFFFFFFFFFFFFFFFFFFFFFFFFFFFFFFFFFFFF MUL NOT AND SWAP1 DUP4 PUSH20 0xFFFFFFFFFFFFFFFFFFFFFFFFFFFFFFFFFFFFFFFF AND MUL OR SWAP1 SSTORE POP PUSH1 0x1 PUSH1 0x40 MLOAD PUSH2 0xA6D SWAP2 SWAP1 PUSH2 0x156F JUMP JUMPDEST PUSH1 0x40 MLOAD DUP1 SWAP2 SUB SWAP1 KECCAK256 PUSH32 0x25F41BB500436B60823D3AC90C8445E63B823240530D3F308DC7202A36920928 PUSH1 0x40 MLOAD PUSH1 0x40 MLOAD DUP1 SWAP2 SUB SWAP1 LOG2 POP POP POP POP POP JUMP JUMPDEST DUP3 DUP1 SLOAD DUP3 DUP3 SSTORE SWAP1 PUSH1 0x0 MSTORE PUSH1 0x20 PUSH1 0x0 KECCAK256 SWAP1 DUP2 ADD SWAP3 DUP3 ISZERO PUSH2 0xB21 JUMPI SWAP2 PUSH1 0x20 MUL DUP3 ADD JUMPDEST DUP3 DUP2 GT ISZERO PUSH2 0xB20 JUMPI DUP3 MLOAD DUP3 PUSH1 0x0 PUSH2 0x100 EXP DUP2 SLOAD DUP2 PUSH20 0xFFFFFFFFFFFFFFFFFFFFFFFFFFFFFFFFFFFFFFFF MUL NOT AND SWAP1 DUP4 PUSH20 0xFFFFFFFFFFFFFFFFFFFFFFFFFFFFFFFFFFFFFFFF AND MUL OR SWAP1 SSTORE POP SWAP2 PUSH1 0x20 ADD SWAP2 SWAP1 PUSH1 0x1 ADD SWAP1 PUSH2 0xAC8 JUMP JUMPDEST JUMPDEST POP SWAP1 POP PUSH2 0xB2E SWAP2 SWAP1 PUSH2 0xB32 JUMP JUMPDEST POP SWAP1 JUMP JUMPDEST JUMPDEST DUP1 DUP3 GT ISZERO PUSH2 0xB4B JUMPI PUSH1 0x0 DUP2 PUSH1 0x0 SWAP1 SSTORE POP PUSH1 0x1 ADD PUSH2 0xB33 JUMP JUMPDEST POP SWAP1 JUMP JUMPDEST PUSH1 0x0 DUP2 SWAP1 POP SWAP2 SWAP1 POP JUMP JUMPDEST PUSH2 0xB62 DUP2 PUSH2 0xB4F JUMP JUMPDEST DUP3 MSTORE POP POP JUMP JUMPDEST PUSH1 0x0 PUSH1 0x20 DUP3 ADD SWAP1 POP PUSH2 0xB7D PUSH1 0x0 DUP4 ADD DUP5 PUSH2 0xB59 JUMP JUMPDEST SWAP3 SWAP2 POP POP JUMP JUMPDEST PUSH1 0x0 PUSH1 0x40 MLOAD SWAP1 POP SWAP1 JUMP JUMPDEST PUSH1 0x0 DUP1 REVERT JUMPDEST PUSH1 0x0 DUP1 REVERT JUMPDEST PUSH2 0xBA0 DUP2 PUSH2 0xB4F JUMP JUMPDEST DUP2 EQ PUSH2 0xBAB JUMPI PUSH1 0x0 DUP1 REVERT JUMPDEST POP JUMP JUMPDEST PUSH1 0x0 DUP2 CALLDATALOAD SWAP1 POP PUSH2 0xBBD DUP2 PUSH2 0xB97 JUMP JUMPDEST SWAP3 SWAP2 POP POP JUMP JUMPDEST PUSH1 0x0 DUP1 REVERT JUMPDEST PUSH1 0x0 PUSH1 0x1F NOT PUSH1 0x1F DUP4 ADD AND SWAP1 POP SWAP2 SWAP1 POP JUMP JUMPDEST PUSH32 0x4E487B7100000000000000000000000000000000000000000000000000000000 PUSH1 0x0 MSTORE PUSH1 0x41 PUSH1 0x4 MSTORE PUSH1 0x24 PUSH1 0x0 REVERT JUMPDEST PUSH2 0xC11 DUP3 PUSH2 0xBC8 JUMP JUMPDEST DUP2 ADD DUP2 DUP2 LT PUSH8 0xFFFFFFFFFFFFFFFF DUP3 GT OR ISZERO PUSH2 0xC30 JUMPI PUSH2 0xC2F PUSH2 0xBD9 JUMP JUMPDEST JUMPDEST DUP1 PUSH1 0x40 MSTORE POP POP POP JUMP JUMPDEST PUSH1 0x0 PUSH2 0xC43 PUSH2 0xB83 JUMP JUMPDEST SWAP1 POP PUSH2 0xC4F DUP3 DUP3 PUSH2 0xC08 JUMP JUMPDEST SWAP2 SWAP1 POP JUMP JUMPDEST PUSH1 0x0 PUSH8 0xFFFFFFFFFFFFFFFF DUP3 GT ISZERO PUSH2 0xC6F JUMPI PUSH2 0xC6E PUSH2 0xBD9 JUMP JUMPDEST JUMPDEST PUSH1 0x20 DUP3 MUL SWAP1 POP PUSH1 0x20 DUP2 ADD SWAP1 POP SWAP2 SWAP1 POP JUMP JUMPDEST PUSH1 0x0 DUP1 REVERT JUMPDEST PUSH1 0x0 PUSH2 0xC98 PUSH2 0xC93 DUP5 PUSH2 0xC54 JUMP JUMPDEST PUSH2 0xC39 JUMP JUMPDEST SWAP1 POP DUP1 DUP4 DUP3 MSTORE PUSH1 0x20 DUP3 ADD SWAP1 POP PUSH1 0x20 DUP5 MUL DUP4 ADD DUP6 DUP2 GT ISZERO PUSH2 0xCBB JUMPI PUSH2 0xCBA PUSH2 0xC80 JUMP JUMPDEST JUMPDEST DUP4 JUMPDEST DUP2 DUP2 LT ISZERO PUSH2 0xCE4 JUMPI DUP1 PUSH2 0xCD0 DUP9 DUP3 PUSH2 0xBAE JUMP JUMPDEST DUP5 MSTORE PUSH1 0x20 DUP5 ADD SWAP4 POP POP PUSH1 0x20 DUP2 ADD SWAP1 POP PUSH2 0xCBD JUMP JUMPDEST POP POP POP SWAP4 SWAP3 POP POP POP JUMP JUMPDEST PUSH1 0x0 DUP3 PUSH1 0x1F DUP4 ADD SLT PUSH2 0xD03 JUMPI PUSH2 0xD02 PUSH2 0xBC3 JUMP JUMPDEST JUMPDEST DUP2 CALLDATALOAD PUSH2 0xD13 DUP5 DUP3 PUSH1 0x20 DUP7 ADD PUSH2 0xC85 JUMP JUMPDEST SWAP2 POP POP SWAP3 SWAP2 POP POP JUMP JUMPDEST PUSH1 0x0 DUP1 PUSH1 0x40 DUP4 DUP6 SUB SLT ISZERO PUSH2 0xD33 JUMPI PUSH2 0xD32 PUSH2 0xB8D JUMP JUMPDEST JUMPDEST PUSH1 0x0 PUSH2 0xD41 DUP6 DUP3 DUP7 ADD PUSH2 0xBAE JUMP JUMPDEST SWAP3 POP POP PUSH1 0x20 DUP4 ADD CALLDATALOAD PUSH8 0xFFFFFFFFFFFFFFFF DUP2 GT ISZERO PUSH2 0xD62 JUMPI PUSH2 0xD61 PUSH2 0xB92 JUMP JUMPDEST JUMPDEST PUSH2 0xD6E DUP6 DUP3 DUP7 ADD PUSH2 0xCEE JUMP JUMPDEST SWAP2 POP POP SWAP3 POP SWAP3 SWAP1 POP JUMP JUMPDEST PUSH1 0x0 DUP1 REVERT JUMPDEST PUSH1 0x0 DUP1 DUP4 PUSH1 0x1F DUP5 ADD SLT PUSH2 0xD93 JUMPI PUSH2 0xD92 PUSH2 0xBC3 JUMP JUMPDEST JUMPDEST DUP3 CALLDATALOAD SWAP1 POP PUSH8 0xFFFFFFFFFFFFFFFF DUP2 GT ISZERO PUSH2 0xDB0 JUMPI PUSH2 0xDAF PUSH2 0xD78 JUMP JUMPDEST JUMPDEST PUSH1 0x20 DUP4 ADD SWAP2 POP DUP4 PUSH1 0x1 DUP3 MUL DUP4 ADD GT ISZERO PUSH2 0xDCC JUMPI PUSH2 0xDCB PUSH2 0xC80 JUMP JUMPDEST JUMPDEST SWAP3 POP SWAP3 SWAP1 POP JUMP JUMPDEST PUSH1 0x0 DUP1 PUSH1 0x20 DUP4 DUP6 SUB SLT ISZERO PUSH2 0xDEA JUMPI PUSH2 0xDE9 PUSH2 0xB8D JUMP JUMPDEST JUMPDEST PUSH1 0x0 DUP4 ADD CALLDATALOAD PUSH8 0xFFFFFFFFFFFFFFFF DUP2 GT ISZERO PUSH2 0xE08 JUMPI PUSH2 0xE07 PUSH2 0xB92 JUMP JUMPDEST JUMPDEST PUSH2 0xE14 DUP6 DUP3 DUP7 ADD PUSH2 0xD7D JUMP JUMPDEST SWAP3 POP SWAP3 POP POP SWAP3 POP SWAP3 SWAP1 POP JUMP JUMPDEST PUSH1 0x0 PUSH1 0x20 DUP3 DUP5 SUB SLT ISZERO PUSH2 0xE36 JUMPI PUSH2 0xE35 PUSH2 0xB8D JUMP JUMPDEST JUMPDEST PUSH1 0x0 PUSH2 0xE44 DUP5 DUP3 DUP6 ADD PUSH2 0xBAE JUMP JUMPDEST SWAP2 POP POP SWAP3 SWAP2 POP POP JUMP JUMPDEST PUSH1 0x0 PUSH20 0xFFFFFFFFFFFFFFFFFFFFFFFFFFFFFFFFFFFFFFFF DUP3 AND SWAP1 POP SWAP2 SWAP1 POP JUMP JUMPDEST PUSH1 0x0 PUSH2 0xE78 DUP3 PUSH2 0xE4D JUMP JUMPDEST SWAP1 POP SWAP2 SWAP1 POP JUMP JUMPDEST PUSH2 0xE88 DUP2 PUSH2 0xE6D JUMP JUMPDEST DUP3 MSTORE POP POP JUMP JUMPDEST PUSH1 0x0 PUSH1 0x20 DUP3 ADD SWAP1 POP PUSH2 0xEA3 PUSH1 0x0 DUP4 ADD DUP5 PUSH2 0xE7F JUMP JUMPDEST SWAP3 SWAP2 POP POP JUMP JUMPDEST PUSH1 0x0 DUP1 REVERT JUMPDEST PUSH1 0x0 PUSH8 0xFFFFFFFFFFFFFFFF DUP3 GT ISZERO PUSH2 0xEC9 JUMPI PUSH2 0xEC8 PUSH2 0xBD9 JUMP JUMPDEST JUMPDEST PUSH2 0xED2 DUP3 PUSH2 0xBC8 JUMP JUMPDEST SWAP1 POP PUSH1 0x20 DUP2 ADD SWAP1 POP SWAP2 SWAP1 POP JUMP JUMPDEST DUP3 DUP2 DUP4 CALLDATACOPY PUSH1 0x0 DUP4 DUP4 ADD MSTORE POP POP POP JUMP JUMPDEST PUSH1 0x0 PUSH2 0xF01 PUSH2 0xEFC DUP5 PUSH2 0xEAE JUMP JUMPDEST PUSH2 0xC39 JUMP JUMPDEST SWAP1 POP DUP3 DUP2 MSTORE PUSH1 0x20 DUP2 ADD DUP5 DUP5 DUP5 ADD GT ISZERO PUSH2 0xF1D JUMPI PUSH2 0xF1C PUSH2 0xEA9 JUMP JUMPDEST JUMPDEST PUSH2 0xF28 DUP5 DUP3 DUP6 PUSH2 0xEDF JUMP JUMPDEST POP SWAP4 SWAP3 POP POP POP JUMP JUMPDEST PUSH1 0x0 DUP3 PUSH1 0x1F DUP4 ADD SLT PUSH2 0xF45 JUMPI PUSH2 0xF44 PUSH2 0xBC3 JUMP JUMPDEST JUMPDEST DUP2 CALLDATALOAD PUSH2 0xF55 DUP5 DUP3 PUSH1 0x20 DUP7 ADD PUSH2 0xEEE JUMP JUMPDEST SWAP2 POP POP SWAP3 SWAP2 POP POP JUMP JUMPDEST PUSH1 0x0 PUSH1 0x20 DUP3 DUP5 SUB SLT ISZERO PUSH2 0xF74 JUMPI PUSH2 0xF73 PUSH2 0xB8D JUMP JUMPDEST JUMPDEST PUSH1 0x0 DUP3 ADD CALLDATALOAD PUSH8 0xFFFFFFFFFFFFFFFF DUP2 GT ISZERO PUSH2 0xF92 JUMPI PUSH2 0xF91 PUSH2 0xB92 JUMP JUMPDEST JUMPDEST PUSH2 0xF9E DUP5 DUP3 DUP6 ADD PUSH2 0xF30 JUMP JUMPDEST SWAP2 POP POP SWAP3 SWAP2 POP POP JUMP JUMPDEST PUSH1 0x0 DUP2 ISZERO ISZERO SWAP1 POP SWAP2 SWAP1 POP JUMP JUMPDEST PUSH2 0xFBC DUP2 PUSH2 0xFA7 JUMP JUMPDEST DUP3 MSTORE POP POP JUMP JUMPDEST PUSH1 0x0 DUP2 MLOAD SWAP1 POP SWAP2 SWAP1 POP JUMP JUMPDEST PUSH1 0x0 DUP3 DUP3 MSTORE PUSH1 0x20 DUP3 ADD SWAP1 POP SWAP3 SWAP2 POP POP JUMP JUMPDEST PUSH1 0x0 JUMPDEST DUP4 DUP2 LT ISZERO PUSH2 0xFFC JUMPI DUP1 DUP3 ADD MLOAD DUP2 DUP5 ADD MSTORE PUSH1 0x20 DUP2 ADD SWAP1 POP PUSH2 0xFE1 JUMP JUMPDEST PUSH1 0x0 DUP5 DUP5 ADD MSTORE POP POP POP POP JUMP JUMPDEST PUSH1 0x0 PUSH2 0x1013 DUP3 PUSH2 0xFC2 JUMP JUMPDEST PUSH2 0x101D DUP2 DUP6 PUSH2 0xFCD JUMP JUMPDEST SWAP4 POP PUSH2 0x102D DUP2 DUP6 PUSH1 0x20 DUP7 ADD PUSH2 0xFDE JUMP JUMPDEST PUSH2 0x1036 DUP2 PUSH2 0xBC8 JUMP JUMPDEST DUP5 ADD SWAP2 POP POP SWAP3 SWAP2 POP POP JUMP JUMPDEST PUSH1 0x0 PUSH1 0x40 DUP3 ADD SWAP1 POP PUSH2 0x1056 PUSH1 0x0 DUP4 ADD DUP6 PUSH2 0xFB3 JUMP JUMPDEST DUP2 DUP2 SUB PUSH1 0x20 DUP4 ADD MSTORE PUSH2 0x1068 DUP2 DUP5 PUSH2 0x1008 JUMP JUMPDEST SWAP1 POP SWAP4 SWAP3 POP POP POP JUMP JUMPDEST PUSH1 0x0 DUP2 MLOAD SWAP1 POP SWAP2 SWAP1 POP JUMP JUMPDEST PUSH1 0x0 DUP3 DUP3 MSTORE PUSH1 0x20 DUP3 ADD SWAP1 POP SWAP3 SWAP2 POP POP JUMP JUMPDEST PUSH1 0x0 DUP2 SWAP1 POP PUSH1 0x20 DUP3 ADD SWAP1 POP SWAP2 SWAP1 POP JUMP JUMPDEST PUSH2 0x10A6 DUP2 PUSH2 0xE6D JUMP JUMPDEST DUP3 MSTORE POP POP JUMP JUMPDEST PUSH1 0x0 PUSH2 0x10B8 DUP4 DUP4 PUSH2 0x109D JUMP JUMPDEST PUSH1 0x20 DUP4 ADD SWAP1 POP SWAP3 SWAP2 POP POP JUMP JUMPDEST PUSH1 0x0 PUSH1 0x20 DUP3 ADD SWAP1 POP SWAP2 SWAP1 POP JUMP JUMPDEST PUSH1 0x0 PUSH2 0x10DC DUP3 PUSH2 0x1071 JUMP JUMPDEST PUSH2 0x10E6 DUP2 DUP6 PUSH2 0x107C JUMP JUMPDEST SWAP4 POP PUSH2 0x10F1 DUP4 PUSH2 0x108D JUMP JUMPDEST DUP1 PUSH1 0x0 JUMPDEST DUP4 DUP2 LT ISZERO PUSH2 0x1122 JUMPI DUP2 MLOAD PUSH2 0x1109 DUP9 DUP3 PUSH2 0x10AC JUMP JUMPDEST SWAP8 POP PUSH2 0x1114 DUP4 PUSH2 0x10C4 JUMP JUMPDEST SWAP3 POP POP PUSH1 0x1 DUP2 ADD SWAP1 POP PUSH2 0x10F5 JUMP JUMPDEST POP DUP6 SWAP4 POP POP POP POP SWAP3 SWAP2 POP POP JUMP JUMPDEST PUSH1 0x0 PUSH1 0x20 DUP3 ADD SWAP1 POP DUP2 DUP2 SUB PUSH1 0x0 DUP4 ADD MSTORE PUSH2 0x1149 DUP2 DUP5 PUSH2 0x10D1 JUMP JUMPDEST SWAP1 POP SWAP3 SWAP2 POP POP JUMP JUMPDEST PUSH1 0x0 PUSH1 0x40 DUP3 ADD SWAP1 POP PUSH2 0x1166 PUSH1 0x0 DUP4 ADD DUP6 PUSH2 0xE7F JUMP JUMPDEST PUSH2 0x1173 PUSH1 0x20 DUP4 ADD DUP5 PUSH2 0xE7F JUMP JUMPDEST SWAP4 SWAP3 POP POP POP JUMP JUMPDEST PUSH32 0x4E487B7100000000000000000000000000000000000000000000000000000000 PUSH1 0x0 MSTORE PUSH1 0x21 PUSH1 0x4 MSTORE PUSH1 0x24 PUSH1 0x0 REVERT JUMPDEST PUSH1 0x0 PUSH1 0x60 DUP3 ADD SWAP1 POP PUSH2 0x11BE PUSH1 0x0 DUP4 ADD DUP7 PUSH2 0xB59 JUMP JUMPDEST PUSH2 0x11CB PUSH1 0x20 DUP4 ADD DUP6 PUSH2 0xB59 JUMP JUMPDEST PUSH2 0x11D8 PUSH1 0x40 DUP4 ADD DUP5 PUSH2 0xB59 JUMP JUMPDEST SWAP5 SWAP4 POP POP POP POP JUMP JUMPDEST PUSH1 0x0 DUP2 SWAP1 POP SWAP2 SWAP1 POP JUMP JUMPDEST PUSH2 0x11F3 DUP2 PUSH2 0x11E0 JUMP JUMPDEST DUP3 MSTORE POP POP JUMP JUMPDEST PUSH1 0x0 PUSH2 0xFFFF DUP3 AND SWAP1 POP SWAP2 SWAP1 POP JUMP JUMPDEST PUSH1 0x0 PUSH8 0xFFFFFFFFFFFFFFFF DUP3 AND SWAP1 POP SWAP2 SWAP1 POP JUMP JUMPDEST PUSH1 0x0 DUP2 SWAP1 POP SWAP2 SWAP1 POP JUMP JUMPDEST PUSH1 0x0 PUSH2 0x1240 PUSH2 0x123B PUSH2 0x1236 DUP5 PUSH2 0x11F9 JUMP JUMPDEST PUSH2 0x121B JUMP JUMPDEST PUSH2 0x1207 JUMP JUMPDEST SWAP1 POP SWAP2 SWAP1 POP JUMP JUMPDEST PUSH2 0x1250 DUP2 PUSH2 0x1225 JUMP JUMPDEST DUP3 MSTORE POP POP JUMP JUMPDEST PUSH2 0x125F DUP2 PUSH2 0x11F9 JUMP JUMPDEST DUP3 MSTORE POP POP JUMP JUMPDEST PUSH1 0x0 PUSH4 0xFFFFFFFF DUP3 AND SWAP1 POP SWAP2 SWAP1 POP JUMP JUMPDEST PUSH2 0x127E DUP2 PUSH2 0x1265 JUMP JUMPDEST DUP3 MSTORE POP POP JUMP JUMPDEST PUSH1 0x0 PUSH1 0xA0 DUP3 ADD SWAP1 POP PUSH2 0x1299 PUSH1 0x0 DUP4 ADD DUP9 PUSH2 0x11EA JUMP JUMPDEST PUSH2 0x12A6 PUSH1 0x20 DUP4 ADD DUP8 PUSH2 0x1247 JUMP JUMPDEST PUSH2 0x12B3 PUSH1 0x40 DUP4 ADD DUP7 PUSH2 0x1256 JUMP JUMPDEST PUSH2 0x12C0 PUSH1 0x60 DUP4 ADD DUP6 PUSH2 0x1275 JUMP JUMPDEST PUSH2 0x12CD PUSH1 0x80 DUP4 ADD DUP5 PUSH2 0x1275 JUMP JUMPDEST SWAP7 SWAP6 POP POP POP POP POP POP JUMP JUMPDEST PUSH1 0x0 DUP2 MLOAD SWAP1 POP PUSH2 0x12E6 DUP2 PUSH2 0xB97 JUMP JUMPDEST SWAP3 SWAP2 POP POP JUMP JUMPDEST PUSH1 0x0 PUSH1 0x20 DUP3 DUP5 SUB SLT ISZERO PUSH2 0x1302 JUMPI PUSH2 0x1301 PUSH2 0xB8D JUMP JUMPDEST JUMPDEST PUSH1 0x0 PUSH2 0x1310 DUP5 DUP3 DUP6 ADD PUSH2 0x12D7 JUMP JUMPDEST SWAP2 POP POP SWAP3 SWAP2 POP POP JUMP JUMPDEST PUSH32 0x4E487B7100000000000000000000000000000000000000000000000000000000 PUSH1 0x0 MSTORE PUSH1 0x32 PUSH1 0x4 MSTORE PUSH1 0x24 PUSH1 0x0 REVERT JUMPDEST PUSH32 0x4E487B7100000000000000000000000000000000000000000000000000000000 PUSH1 0x0 MSTORE PUSH1 0x11 PUSH1 0x4 MSTORE PUSH1 0x24 PUSH1 0x0 REVERT JUMPDEST PUSH1 0x0 PUSH2 0x1382 DUP3 PUSH2 0xB4F JUMP JUMPDEST SWAP2 POP PUSH2 0x138D DUP4 PUSH2 0xB4F JUMP JUMPDEST SWAP3 POP DUP3 DUP3 SUB SWAP1 POP DUP2 DUP2 GT ISZERO PUSH2 0x13A5 JUMPI PUSH2 0x13A4 PUSH2 0x1348 JUMP JUMPDEST JUMPDEST SWAP3 SWAP2 POP POP JUMP JUMPDEST PUSH32 0x4E487B7100000000000000000000000000000000000000000000000000000000 PUSH1 0x0 MSTORE PUSH1 0x12 PUSH1 0x4 MSTORE PUSH1 0x24 PUSH1 0x0 REVERT JUMPDEST PUSH1 0x0 PUSH2 0x13E5 DUP3 PUSH2 0xB4F JUMP JUMPDEST SWAP2 POP PUSH2 0x13F0 DUP4 PUSH2 0xB4F JUMP JUMPDEST SWAP3 POP DUP3 PUSH2 0x1400 JUMPI PUSH2 0x13FF PUSH2 0x13AB JUMP JUMPDEST JUMPDEST DUP3 DUP3 MOD SWAP1 POP SWAP3 SWAP2 POP POP JUMP JUMPDEST PUSH1 0x0 DUP2 SWAP1 POP SWAP3 SWAP2 POP POP JUMP JUMPDEST POP JUMP JUMPDEST PUSH1 0x0 PUSH2 0x1426 PUSH1 0x0 DUP4 PUSH2 0x140B JUMP JUMPDEST SWAP2 POP PUSH2 0x1431 DUP3 PUSH2 0x1416 JUMP JUMPDEST PUSH1 0x0 DUP3 ADD SWAP1 POP SWAP2 SWAP1 POP JUMP JUMPDEST PUSH1 0x0 PUSH2 0x1447 DUP3 PUSH2 0x1419 JUMP JUMPDEST SWAP2 POP DUP2 SWAP1 POP SWAP2 SWAP1 POP JUMP JUMPDEST PUSH1 0x0 DUP2 SLOAD SWAP1 POP SWAP2 SWAP1 POP JUMP JUMPDEST PUSH1 0x0 DUP2 SWAP1 POP SWAP3 SWAP2 POP POP JUMP JUMPDEST PUSH1 0x0 DUP2 SWAP1 POP DUP2 PUSH1 0x0 MSTORE PUSH1 0x20 PUSH1 0x0 KECCAK256 SWAP1 POP SWAP2 SWAP1 POP JUMP JUMPDEST PUSH2 0x1485 DUP2 PUSH2 0xE6D JUMP JUMPDEST DUP3 MSTORE POP POP JUMP JUMPDEST PUSH1 0x0 PUSH2 0x1497 DUP4 DUP4 PUSH2 0x147C JUMP JUMPDEST PUSH1 0x20 DUP4 ADD SWAP1 POP SWAP3 SWAP2 POP POP JUMP JUMPDEST PUSH1 0x0 DUP2 PUSH1 0x0 SHR SWAP1 POP SWAP2 SWAP1 POP JUMP JUMPDEST PUSH1 0x0 PUSH20 0xFFFFFFFFFFFFFFFFFFFFFFFFFFFFFFFFFFFFFFFF DUP3 AND SWAP1 POP SWAP2 SWAP1 POP JUMP JUMPDEST PUSH1 0x0 PUSH2 0x14E3 PUSH2 0x14DE DUP4 PUSH2 0x14A3 JUMP JUMPDEST PUSH2 0x14B0 JUMP JUMPDEST SWAP1 POP SWAP2 SWAP1 POP JUMP JUMPDEST PUSH1 0x0 PUSH2 0x14F6 DUP3 SLOAD PUSH2 0x14D0 JUMP JUMPDEST SWAP1 POP SWAP2 SWAP1 POP JUMP JUMPDEST PUSH1 0x0 PUSH1 0x1 DUP3 ADD SWAP1 POP SWAP2 SWAP1 POP JUMP JUMPDEST PUSH1 0x0 PUSH2 0x1515 DUP3 PUSH2 0x1451 JUMP JUMPDEST PUSH2 0x151F DUP2 DUP6 PUSH2 0x145C JUMP JUMPDEST SWAP4 POP PUSH2 0x152A DUP4 PUSH2 0x1467 JUMP JUMPDEST DUP1 PUSH1 0x0 JUMPDEST DUP4 DUP2 LT ISZERO PUSH2 0x1562 JUMPI PUSH2 0x153F DUP3 PUSH2 0x14EA JUMP JUMPDEST PUSH2 0x1549 DUP9 DUP3 PUSH2 0x148B JUMP JUMPDEST SWAP8 POP PUSH2 0x1554 DUP4 PUSH2 0x14FD JUMP JUMPDEST SWAP3 POP POP PUSH1 0x1 DUP2 ADD SWAP1 POP PUSH2 0x152E JUMP JUMPDEST POP DUP6 SWAP4 POP POP POP POP SWAP3 SWAP2 POP POP JUMP JUMPDEST PUSH1 0x0 PUSH2 0x157B DUP3 DUP5 PUSH2 0x150A JUMP JUMPDEST SWAP2 POP DUP2 SWAP1 POP SWAP3 SWAP2 POP POP JUMP INVALID LOG2 PUSH5 0x6970667358 0x22 SLT KECCAK256 0x27 EXTCODESIZE PUSH11 0xCC5260EE50307001D8D7BD MULMOD DUP11 0xD4 0xD8 0xC7 PUSH25 0x65C4FEE4127E41500FE8CC7B64736F6C634300081300330000 "},"gasEstimates":{"creation":{"codeDepositCost":"1112800","executionCost":"infinite","totalCost":"infinite"},"external":{"checkUpkeep(bytes)":"infinite","enterRaffle()":"infinite","getEntranceFee()":"infinite","getPlayers(uint256)":"4967","getRecentWinner()":"2544","getWinners()":"infinite","performUpkeep(bytes)":"infinite","rawFulfillRandomWords(uint256,uint256[])":"infinite"},"internal":{"fulfillRandomWords(uint256,uint256[] memory)":"infinite"}},"methodIdentifiers":{"checkUpkeep(bytes)":"6e04ff0d","enterRaffle()":"2cfcc539","getEntranceFee()":"09bc33a7","getPlayers(uint256)":"460e2049","getRecentWinner()":"473f1ddc","getWinners()":"df15c37e","performUpkeep(bytes)":"4585e33b","rawFulfillRandomWords(uint256,uint256[])":"1fe543e3"}},"storageLayout":{"storage":[{"astId":242,"contract":"contracts/Raffle.sol:Raffle","label":"s_players","offset":0,"slot":"0","type":"t_array(t_address_payable)dyn_storage"},{"astId":260,"contract":"contracts/Raffle.sol:Raffle","label":"s_winners","offset":0,"slot":"1","type":"t_array(t_address)dyn_storage"},{"astId":275,"contract":"contracts/Raffle.sol:Raffle","label":"s_recentWinner","offset":0,"slot":"2","type":"t_address"},{"astId":278,"contract":"contracts/Raffle.sol:Raffle","label":"s_raffleState","offset":20,"slot":"2","type":"t_enum(RaffleState)237"},{"astId":280,"contract":"contracts/Raffle.sol:Raffle","label":"s_lastBlockTimeStamp","offset":0,"slot":"3","type":"t_uint256"}],"types":{"t_address":{"encoding":"inplace","label":"address","numberOfBytes":"20"},"t_address_payable":{"encoding":"inplace","label":"address payable","numberOfBytes":"20"},"t_array(t_address)dyn_storage":{"base":"t_address","encoding":"dynamic_array","label":"address[]","numberOfBytes":"32"},"t_array(t_address_payable)dyn_storage":{"base":"t_address_payable","encoding":"dynamic_array","label":"address payable[]","numberOfBytes":"32"},"t_enum(RaffleState)237":{"encoding":"inplace","label":"enum Raffle.RaffleState","numberOfBytes":"1"},"t_uint256":{"encoding":"inplace","label":"uint256","numberOfBytes":"32"}}},"userdoc":{"kind":"user","methods":{},"version":1}}}}