{
  "_format": "hh-sol-artifact-1",
  "contractName": "Raffle",
  "sourceName": "contracts/Raffle.sol",
  "abi": [
    {
      "inputs": [
        {
          "internalType": "address",
          "name": "vrfCoordinatorV2",
          "type": "address"
        },
        {
          "internalType": "uint256",
          "name": "entrancefee",
          "type": "uint256"
        },
        {
          "internalType": "bytes32",
          "name": "gasLane",
          "type": "bytes32"
        },
        {
          "internalType": "uint16",
          "name": "subscription",
          "type": "uint16"
        },
        {
          "internalType": "uint32",
          "name": "callbackGasLimit",
          "type": "uint32"
        },
        {
          "internalType": "uint256",
          "name": "interval",
          "type": "uint256"
        }
      ],
      "stateMutability": "nonpayable",
      "type": "constructor"
    },
    {
      "inputs": [
        {
          "internalType": "address",
          "name": "have",
          "type": "address"
        },
        {
          "internalType": "address",
          "name": "want",
          "type": "address"
        }
      ],
      "name": "OnlyCoordinatorCanFulfill",
      "type": "error"
    },
    {
      "inputs": [],
      "name": "Raffle__NotEnoughtETH",
      "type": "error"
    },
    {
      "inputs": [],
      "name": "Raffle__RaflleIsClosed",
      "type": "error"
    },
    {
      "inputs": [],
      "name": "Raffle___WithdrawalFailed",
      "type": "error"
    },
    {
      "inputs": [
        {
          "internalType": "uint256",
          "name": "currentBalance",
          "type": "uint256"
        },
        {
          "internalType": "uint256",
          "name": "numberOfPlayers",
          "type": "uint256"
        },
        {
          "internalType": "uint256",
          "name": "raffleState",
          "type": "uint256"
        }
      ],
      "name": "Raffle__upKeepNotNeeded",
      "type": "error"
    },
    {
      "anonymous": false,
      "inputs": [
        {
          "indexed": true,
          "internalType": "address",
          "name": "player",
          "type": "address"
        }
      ],
      "name": "RaffleEnter",
      "type": "event"
    },
    {
      "anonymous": false,
      "inputs": [
        {
          "indexed": true,
          "internalType": "uint256",
          "name": "requestId",
          "type": "uint256"
        }
      ],
      "name": "RequestedRaffleWinner",
      "type": "event"
    },
    {
      "anonymous": false,
      "inputs": [
        {
          "indexed": true,
          "internalType": "address[]",
          "name": "winners",
          "type": "address[]"
        }
      ],
      "name": "RequestedRaffleWinners",
      "type": "event"
    },
    {
      "inputs": [
        {
          "internalType": "bytes",
          "name": "",
          "type": "bytes"
        }
      ],
      "name": "checkUpkeep",
      "outputs": [
        {
          "internalType": "bool",
          "name": "upKeepNeeded",
          "type": "bool"
        },
        {
          "internalType": "bytes",
          "name": "",
          "type": "bytes"
        }
      ],
      "stateMutability": "view",
      "type": "function"
    },
    {
      "inputs": [],
      "name": "enterRaffle",
      "outputs": [],
      "stateMutability": "payable",
      "type": "function"
    },
    {
      "inputs": [],
      "name": "getEntranceFee",
      "outputs": [
        {
          "internalType": "uint256",
          "name": "",
          "type": "uint256"
        }
      ],
      "stateMutability": "view",
      "type": "function"
    },
    {
      "inputs": [],
      "name": "getLatestTimestamp",
      "outputs": [
        {
          "internalType": "uint256",
          "name": "",
          "type": "uint256"
        }
      ],
      "stateMutability": "view",
      "type": "function"
    },
    {
      "inputs": [],
      "name": "getNumWords",
      "outputs": [
        {
          "internalType": "uint32",
          "name": "",
          "type": "uint32"
        }
      ],
      "stateMutability": "pure",
      "type": "function"
    },
    {
      "inputs": [],
      "name": "getNumberOfPlayers",
      "outputs": [
        {
          "internalType": "uint256",
          "name": "",
          "type": "uint256"
        }
      ],
      "stateMutability": "view",
      "type": "function"
    },
    {
      "inputs": [
        {
          "internalType": "uint256",
          "name": "index",
          "type": "uint256"
        }
      ],
      "name": "getPlayers",
      "outputs": [
        {
          "internalType": "address",
          "name": "",
          "type": "address"
        }
      ],
      "stateMutability": "view",
      "type": "function"
    },
    {
      "inputs": [],
      "name": "getRaffleState",
      "outputs": [
        {
          "internalType": "enum Raffle.RaffleState",
          "name": "",
          "type": "uint8"
        }
      ],
      "stateMutability": "view",
      "type": "function"
    },
    {
      "inputs": [],
      "name": "getRecentWinner",
      "outputs": [
        {
          "internalType": "address",
          "name": "",
          "type": "address"
        }
      ],
      "stateMutability": "view",
      "type": "function"
    },
    {
      "inputs": [],
      "name": "getWinners",
      "outputs": [
        {
          "internalType": "address[]",
          "name": "",
          "type": "address[]"
        }
      ],
      "stateMutability": "view",
      "type": "function"
    },
    {
      "inputs": [
        {
          "internalType": "bytes",
          "name": "",
          "type": "bytes"
        }
      ],
      "name": "performUpkeep",
      "outputs": [],
      "stateMutability": "nonpayable",
      "type": "function"
    },
    {
      "inputs": [
        {
          "internalType": "uint256",
          "name": "requestId",
          "type": "uint256"
        },
        {
          "internalType": "uint256[]",
          "name": "randomWords",
          "type": "uint256[]"
        }
      ],
      "name": "rawFulfillRandomWords",
      "outputs": [],
      "stateMutability": "nonpayable",
      "type": "function"
    }
  ],
  "bytecode": "0x6101606040523480156200001257600080fd5b5060405162001b1338038062001b13833981810160405281019062000038919062000282565b858073ffffffffffffffffffffffffffffffffffffffff1660808173ffffffffffffffffffffffffffffffffffffffff1681525050508573ffffffffffffffffffffffffffffffffffffffff1660c08173ffffffffffffffffffffffffffffffffffffffff16815250508460a081815250508360e081815250508261ffff166101008161ffff16815250508163ffffffff166101208163ffffffff16815250506000600260146101000a81548160ff021916908360018111156200010157620001006200031e565b5b0217905550426003819055508061014081815250505050505050506200034d565b600080fd5b600073ffffffffffffffffffffffffffffffffffffffff82169050919050565b6000620001548262000127565b9050919050565b620001668162000147565b81146200017257600080fd5b50565b60008151905062000186816200015b565b92915050565b6000819050919050565b620001a1816200018c565b8114620001ad57600080fd5b50565b600081519050620001c18162000196565b92915050565b6000819050919050565b620001dc81620001c7565b8114620001e857600080fd5b50565b600081519050620001fc81620001d1565b92915050565b600061ffff82169050919050565b6200021b8162000202565b81146200022757600080fd5b50565b6000815190506200023b8162000210565b92915050565b600063ffffffff82169050919050565b6200025c8162000241565b81146200026857600080fd5b50565b6000815190506200027c8162000251565b92915050565b60008060008060008060c08789031215620002a257620002a162000122565b5b6000620002b289828a0162000175565b9650506020620002c589828a01620001b0565b9550506040620002d889828a01620001eb565b9450506060620002eb89828a016200022a565b9350506080620002fe89828a016200026b565b92505060a06200031189828a01620001b0565b9150509295509295509295565b7f4e487b7100000000000000000000000000000000000000000000000000000000600052602160045260246000fd5b60805160a05160c05160e05161010051610120516101405161175d620003b660003960006107f20152600061067c0152600061065901526000610638015260006105fc0152600081816102b4015261041e0152600081816102f10152610345015261175d6000f3fe6080604052600436106100a75760003560e01c8063473f1ddc11610064578063473f1ddc1461019b57806353a2c19a146101c65780636e04ff0d146101f1578063df15c37e1461022f578063f43b52cb1461025a578063fd6673f514610285576100a7565b806309bc33a7146100ac578063115cbaf5146100d75780631fe543e3146101025780632cfcc5391461012b5780634585e33b14610135578063460e20491461015e575b600080fd5b3480156100b857600080fd5b506100c16102b0565b6040516100ce9190610c8b565b60405180910390f35b3480156100e357600080fd5b506100ec6102d8565b6040516100f99190610d1d565b60405180910390f35b34801561010e57600080fd5b5061012960048036038101906101249190610ed1565b6102ef565b005b6101336103af565b005b34801561014157600080fd5b5061015c60048036038101906101579190610f88565b61051e565b005b34801561016a57600080fd5b5061018560048036038101906101809190610fd5565b610735565b6040516101929190611043565b60405180910390f35b3480156101a757600080fd5b506101b061077c565b6040516101bd9190611043565b60405180910390f35b3480156101d257600080fd5b506101db6107a6565b6040516101e8919061107d565b60405180910390f35b3480156101fd57600080fd5b506102186004803603810190610213919061114d565b6107af565b604051610226929190611230565b60405180910390f35b34801561023b57600080fd5b50610244610871565b604051610251919061131e565b60405180910390f35b34801561026657600080fd5b5061026f6108ff565b60405161027c9190610c8b565b60405180910390f35b34801561029157600080fd5b5061029a610909565b6040516102a79190610c8b565b60405180910390f35b60007f0000000000000000000000000000000000000000000000000000000000000000905090565b6000600260149054906101000a900460ff16905090565b7f000000000000000000000000000000000000000000000000000000000000000073ffffffffffffffffffffffffffffffffffffffff163373ffffffffffffffffffffffffffffffffffffffff16146103a157337f00000000000000000000000000000000000000000000000000000000000000006040517f1cf993f4000000000000000000000000000000000000000000000000000000008152600401610398929190611340565b60405180910390fd5b6103ab8282610915565b5050565b600060018111156103c3576103c2610ca6565b5b600260149054906101000a900460ff1660018111156103e5576103e4610ca6565b5b1461041c576040517fe64195df00000000000000000000000000000000000000000000000000000000815260040160405180910390fd5b7f0000000000000000000000000000000000000000000000000000000000000000341015610476576040517f3284cf4500000000000000000000000000000000000000000000000000000000815260040160405180910390fd5b6000339080600181540180825580915050600190039060005260206000200160009091909190916101000a81548173ffffffffffffffffffffffffffffffffffffffff021916908373ffffffffffffffffffffffffffffffffffffffff1602179055503373ffffffffffffffffffffffffffffffffffffffff167f0805e1d667bddb8a95f0f09880cf94f403fb596ce79928d9f29b74203ba284d460405160405180910390a2565b600061055e6040518060400160405280600181526020017f20000000000000000000000000000000000000000000000000000000000000008152506107af565b509050806105cd5747600080549050600260149054906101000a900460ff16600181111561058f5761058e610ca6565b5b6040517f43df4e3d0000000000000000000000000000000000000000000000000000000081526004016105c493929190611369565b60405180910390fd5b6001600260146101000a81548160ff021916908360018111156105f3576105f2610ca6565b5b021790555060007f000000000000000000000000000000000000000000000000000000000000000073ffffffffffffffffffffffffffffffffffffffff16635d3b1d307f00000000000000000000000000000000000000000000000000000000000000007f000000000000000000000000000000000000000000000000000000000000000060037f000000000000000000000000000000000000000000000000000000000000000060016040518663ffffffff1660e01b81526004016106bd959493929190611425565b6020604051808303816000875af11580156106dc573d6000803e3d6000fd5b505050506040513d601f19601f82011682018060405250810190610700919061148d565b9050807fcd6e45c8998311cab7e9d4385596cac867e20a0587194b954fa3a731c93ce78b60405160405180910390a250505050565b600080828154811061074a576107496114ba565b5b9060005260206000200160009054906101000a900473ffffffffffffffffffffffffffffffffffffffff169050919050565b6000600260009054906101000a900473ffffffffffffffffffffffffffffffffffffffff16905090565b60006001905090565b600060606000600260149054906101000a900460ff1660018111156107d7576107d6610ca6565b5b600060018111156107eb576107ea610ca6565b5b14905060007f00000000000000000000000000000000000000000000000000000000000000006003544261081f9190611518565b1190506000806000805490501190506000804711905083801561083f5750825b80156108485750815b80156108515750805b955085604051806020016040528060008152509550955050505050915091565b606060018054806020026020016040519081016040528092919081815260200182805480156108f557602002820191906000526020600020905b8160009054906101000a900473ffffffffffffffffffffffffffffffffffffffff1673ffffffffffffffffffffffffffffffffffffffff16815260200190600101908083116108ab575b5050505050905090565b6000600354905090565b60008080549050905090565b60008080549050826000815181106109305761092f6114ba565b5b6020026020010151610942919061157b565b90506000808281548110610959576109586114ba565b5b9060005260206000200160009054906101000a900473ffffffffffffffffffffffffffffffffffffffff16905080600260006101000a81548173ffffffffffffffffffffffffffffffffffffffff021916908373ffffffffffffffffffffffffffffffffffffffff1602179055506000600260146101000a81548160ff021916908360018111156109ed576109ec610ca6565b5b0217905550600067ffffffffffffffff811115610a0d57610a0c610d8e565b5b604051908082528060200260200182016040528015610a3b5781602001602082028036833780820191505090505b5060009080519060200190610a51929190610bcb565b504260038190555060008173ffffffffffffffffffffffffffffffffffffffff1647604051610a7f906115dd565b60006040518083038185875af1925050503d8060008114610abc576040519150601f19603f3d011682016040523d82523d6000602084013e610ac1565b606091505b5050905080610afc576040517fef3279bc00000000000000000000000000000000000000000000000000000000815260040160405180910390fd5b6001600260009054906101000a900473ffffffffffffffffffffffffffffffffffffffff169080600181540180825580915050600190039060005260206000200160009091909190916101000a81548173ffffffffffffffffffffffffffffffffffffffff021916908373ffffffffffffffffffffffffffffffffffffffff1602179055506001604051610b909190611710565b60405180910390207f25f41bb500436b60823d3ac90c8445e63b823240530d3f308dc7202a3692092860405160405180910390a25050505050565b828054828255906000526020600020908101928215610c44579160200282015b82811115610c435782518260006101000a81548173ffffffffffffffffffffffffffffffffffffffff021916908373ffffffffffffffffffffffffffffffffffffffff16021790555091602001919060010190610beb565b5b509050610c519190610c55565b5090565b5b80821115610c6e576000816000905550600101610c56565b5090565b6000819050919050565b610c8581610c72565b82525050565b6000602082019050610ca06000830184610c7c565b92915050565b7f4e487b7100000000000000000000000000000000000000000000000000000000600052602160045260246000fd5b60028110610ce657610ce5610ca6565b5b50565b6000819050610cf782610cd5565b919050565b6000610d0782610ce9565b9050919050565b610d1781610cfc565b82525050565b6000602082019050610d326000830184610d0e565b92915050565b6000604051905090565b600080fd5b600080fd5b610d5581610c72565b8114610d6057600080fd5b50565b600081359050610d7281610d4c565b92915050565b600080fd5b6000601f19601f8301169050919050565b7f4e487b7100000000000000000000000000000000000000000000000000000000600052604160045260246000fd5b610dc682610d7d565b810181811067ffffffffffffffff82111715610de557610de4610d8e565b5b80604052505050565b6000610df8610d38565b9050610e048282610dbd565b919050565b600067ffffffffffffffff821115610e2457610e23610d8e565b5b602082029050602081019050919050565b600080fd5b6000610e4d610e4884610e09565b610dee565b90508083825260208201905060208402830185811115610e7057610e6f610e35565b5b835b81811015610e995780610e858882610d63565b845260208401935050602081019050610e72565b5050509392505050565b600082601f830112610eb857610eb7610d78565b5b8135610ec8848260208601610e3a565b91505092915050565b60008060408385031215610ee857610ee7610d42565b5b6000610ef685828601610d63565b925050602083013567ffffffffffffffff811115610f1757610f16610d47565b5b610f2385828601610ea3565b9150509250929050565b600080fd5b60008083601f840112610f4857610f47610d78565b5b8235905067ffffffffffffffff811115610f6557610f64610f2d565b5b602083019150836001820283011115610f8157610f80610e35565b5b9250929050565b60008060208385031215610f9f57610f9e610d42565b5b600083013567ffffffffffffffff811115610fbd57610fbc610d47565b5b610fc985828601610f32565b92509250509250929050565b600060208284031215610feb57610fea610d42565b5b6000610ff984828501610d63565b91505092915050565b600073ffffffffffffffffffffffffffffffffffffffff82169050919050565b600061102d82611002565b9050919050565b61103d81611022565b82525050565b60006020820190506110586000830184611034565b92915050565b600063ffffffff82169050919050565b6110778161105e565b82525050565b6000602082019050611092600083018461106e565b92915050565b600080fd5b600067ffffffffffffffff8211156110b8576110b7610d8e565b5b6110c182610d7d565b9050602081019050919050565b82818337600083830152505050565b60006110f06110eb8461109d565b610dee565b90508281526020810184848401111561110c5761110b611098565b5b6111178482856110ce565b509392505050565b600082601f83011261113457611133610d78565b5b81356111448482602086016110dd565b91505092915050565b60006020828403121561116357611162610d42565b5b600082013567ffffffffffffffff81111561118157611180610d47565b5b61118d8482850161111f565b91505092915050565b60008115159050919050565b6111ab81611196565b82525050565b600081519050919050565b600082825260208201905092915050565b60005b838110156111eb5780820151818401526020810190506111d0565b60008484015250505050565b6000611202826111b1565b61120c81856111bc565b935061121c8185602086016111cd565b61122581610d7d565b840191505092915050565b600060408201905061124560008301856111a2565b818103602083015261125781846111f7565b90509392505050565b600081519050919050565b600082825260208201905092915050565b6000819050602082019050919050565b61129581611022565b82525050565b60006112a7838361128c565b60208301905092915050565b6000602082019050919050565b60006112cb82611260565b6112d5818561126b565b93506112e08361127c565b8060005b838110156113115781516112f8888261129b565b9750611303836112b3565b9250506001810190506112e4565b5085935050505092915050565b6000602082019050818103600083015261133881846112c0565b905092915050565b60006040820190506113556000830185611034565b6113626020830184611034565b9392505050565b600060608201905061137e6000830186610c7c565b61138b6020830185610c7c565b6113986040830184610c7c565b949350505050565b6000819050919050565b6113b3816113a0565b82525050565b600061ffff82169050919050565b600067ffffffffffffffff82169050919050565b6000819050919050565b60006114006113fb6113f6846113b9565b6113db565b6113c7565b9050919050565b611410816113e5565b82525050565b61141f816113b9565b82525050565b600060a08201905061143a60008301886113aa565b6114476020830187611407565b6114546040830186611416565b611461606083018561106e565b61146e608083018461106e565b9695505050505050565b60008151905061148781610d4c565b92915050565b6000602082840312156114a3576114a2610d42565b5b60006114b184828501611478565b91505092915050565b7f4e487b7100000000000000000000000000000000000000000000000000000000600052603260045260246000fd5b7f4e487b7100000000000000000000000000000000000000000000000000000000600052601160045260246000fd5b600061152382610c72565b915061152e83610c72565b9250828203905081811115611546576115456114e9565b5b92915050565b7f4e487b7100000000000000000000000000000000000000000000000000000000600052601260045260246000fd5b600061158682610c72565b915061159183610c72565b9250826115a1576115a061154c565b5b828206905092915050565b600081905092915050565b50565b60006115c76000836115ac565b91506115d2826115b7565b600082019050919050565b60006115e8826115ba565b9150819050919050565b600081549050919050565b600081905092915050565b60008190508160005260206000209050919050565b61162681611022565b82525050565b6000611638838361161d565b60208301905092915050565b60008160001c9050919050565b600073ffffffffffffffffffffffffffffffffffffffff82169050919050565b600061168461167f83611644565b611651565b9050919050565b60006116978254611671565b9050919050565b6000600182019050919050565b60006116b6826115f2565b6116c081856115fd565b93506116cb83611608565b8060005b83811015611703576116e08261168b565b6116ea888261162c565b97506116f58361169e565b9250506001810190506116cf565b5085935050505092915050565b600061171c82846116ab565b91508190509291505056fea2646970667358221220e212dc66b2a826a56752089e8f27dce551e8eb078e3d3692cd0b19fe357d5caa64736f6c63430008130033",
  "linkReferences": {},
  "deployedLinkReferences": {}
}