{
  "_format": "hh-sol-artifact-1",
  "contractName": "Raffle",
  "sourceName": "contracts/Raffle.sol",
  "abi": [
    {
      "inputs": [
        {
          "internalType": "address",
          "name": "vrfCoordinatorV2",
          "type": "address"
        },
        {
          "internalType": "uint256",
          "name": "entrancefee",
          "type": "uint256"
        },
        {
          "internalType": "bytes32",
          "name": "gasLane",
          "type": "bytes32"
        },
        {
          "internalType": "uint16",
          "name": "subscription",
          "type": "uint16"
        },
        {
          "internalType": "uint32",
          "name": "callbackGasLimit",
          "type": "uint32"
        }
      ],
      "stateMutability": "nonpayable",
      "type": "constructor"
    },
    {
      "inputs": [
        {
          "internalType": "address",
          "name": "have",
          "type": "address"
        },
        {
          "internalType": "address",
          "name": "want",
          "type": "address"
        }
      ],
      "name": "OnlyCoordinatorCanFulfill",
      "type": "error"
    },
    {
      "inputs": [],
      "name": "Raffle__NotEnoughtETH",
      "type": "error"
    },
    {
      "inputs": [],
      "name": "Raffle___WithdrawalFailed",
      "type": "error"
    },
    {
      "anonymous": false,
      "inputs": [
        {
          "indexed": true,
          "internalType": "address",
          "name": "player",
          "type": "address"
        }
      ],
      "name": "RaffleEnter",
      "type": "event"
    },
    {
      "anonymous": false,
      "inputs": [
        {
          "indexed": true,
          "internalType": "uint256",
          "name": "requestId",
          "type": "uint256"
        }
      ],
      "name": "RequestedRaffleWinner",
      "type": "event"
    },
    {
      "anonymous": false,
      "inputs": [
        {
          "indexed": true,
          "internalType": "address[]",
          "name": "winners",
          "type": "address[]"
        }
      ],
      "name": "RequestedRaffleWinners",
      "type": "event"
    },
    {
      "inputs": [],
      "name": "enterRaffle",
      "outputs": [],
      "stateMutability": "payable",
      "type": "function"
    },
    {
      "inputs": [],
      "name": "getEntranceFee",
      "outputs": [
        {
          "internalType": "uint256",
          "name": "",
          "type": "uint256"
        }
      ],
      "stateMutability": "view",
      "type": "function"
    },
    {
      "inputs": [
        {
          "internalType": "uint256",
          "name": "index",
          "type": "uint256"
        }
      ],
      "name": "getPlayers",
      "outputs": [
        {
          "internalType": "address",
          "name": "",
          "type": "address"
        }
      ],
      "stateMutability": "view",
      "type": "function"
    },
    {
      "inputs": [],
      "name": "getRecentWinner",
      "outputs": [
        {
          "internalType": "address",
          "name": "",
          "type": "address"
        }
      ],
      "stateMutability": "view",
      "type": "function"
    },
    {
      "inputs": [],
      "name": "getRecentWinners",
      "outputs": [
        {
          "internalType": "address[]",
          "name": "",
          "type": "address[]"
        }
      ],
      "stateMutability": "view",
      "type": "function"
    },
    {
      "inputs": [
        {
          "internalType": "uint256",
          "name": "requestId",
          "type": "uint256"
        },
        {
          "internalType": "uint256[]",
          "name": "randomWords",
          "type": "uint256[]"
        }
      ],
      "name": "rawFulfillRandomWords",
      "outputs": [],
      "stateMutability": "nonpayable",
      "type": "function"
    },
    {
      "inputs": [],
      "name": "requestRandomWinner",
      "outputs": [],
      "stateMutability": "nonpayable",
      "type": "function"
    }
  ],
  "bytecode": "0x6101406040523480156200001257600080fd5b506040516200122138038062001221833981810160405281019062000038919062000243565b848073ffffffffffffffffffffffffffffffffffffffff1660808173ffffffffffffffffffffffffffffffffffffffff1681525050508473ffffffffffffffffffffffffffffffffffffffff1660c08173ffffffffffffffffffffffffffffffffffffffff16815250508360a081815250508260e081815250508161ffff166101008161ffff16815250508063ffffffff166101208163ffffffff16815250505050505050620002cb565b600080fd5b600073ffffffffffffffffffffffffffffffffffffffff82169050919050565b60006200011582620000e8565b9050919050565b620001278162000108565b81146200013357600080fd5b50565b60008151905062000147816200011c565b92915050565b6000819050919050565b62000162816200014d565b81146200016e57600080fd5b50565b600081519050620001828162000157565b92915050565b6000819050919050565b6200019d8162000188565b8114620001a957600080fd5b50565b600081519050620001bd8162000192565b92915050565b600061ffff82169050919050565b620001dc81620001c3565b8114620001e857600080fd5b50565b600081519050620001fc81620001d1565b92915050565b600063ffffffff82169050919050565b6200021d8162000202565b81146200022957600080fd5b50565b6000815190506200023d8162000212565b92915050565b600080600080600060a08688031215620002625762000261620000e3565b5b6000620002728882890162000136565b9550506020620002858882890162000171565b94505060406200029888828901620001ac565b9350506060620002ab88828901620001eb565b9250506080620002be888289016200022c565b9150509295509295909350565b60805160a05160c05160e0516101005161012051610ef862000329600039600061045c0152600061043901526000610418015260006103dc01526000818161018101526102670152600081816101a701526101fb0152610ef86000f3fe6080604052600436106100705760003560e01c8063460e20491161004e578063460e2049146100d3578063473f1ddc14610110578063522a1f0b1461013b578063f077b9741461015257610070565b806309bc33a7146100755780631fe543e3146100a05780632cfcc539146100c9575b600080fd5b34801561008157600080fd5b5061008a61017d565b60405161009791906107dd565b60405180910390f35b3480156100ac57600080fd5b506100c760048036038101906100c29190610991565b6101a5565b005b6100d1610265565b005b3480156100df57600080fd5b506100fa60048036038101906100f591906109ed565b610367565b6040516101079190610a5b565b60405180910390f35b34801561011c57600080fd5b506101256103ae565b6040516101329190610a5b565b60405180910390f35b34801561014757600080fd5b506101506103d8565b005b34801561015e57600080fd5b50610167610512565b6040516101749190610b34565b60405180910390f35b60007f0000000000000000000000000000000000000000000000000000000000000000905090565b7f000000000000000000000000000000000000000000000000000000000000000073ffffffffffffffffffffffffffffffffffffffff163373ffffffffffffffffffffffffffffffffffffffff161461025757337f00000000000000000000000000000000000000000000000000000000000000006040517f1cf993f400000000000000000000000000000000000000000000000000000000815260040161024e929190610b56565b60405180910390fd5b61026182826105a0565b5050565b7f00000000000000000000000000000000000000000000000000000000000000003410156102bf576040517f3284cf4500000000000000000000000000000000000000000000000000000000815260040160405180910390fd5b6000339080600181540180825580915050600190039060005260206000200160009091909190916101000a81548173ffffffffffffffffffffffffffffffffffffffff021916908373ffffffffffffffffffffffffffffffffffffffff1602179055503373ffffffffffffffffffffffffffffffffffffffff167f0805e1d667bddb8a95f0f09880cf94f403fb596ce79928d9f29b74203ba284d460405160405180910390a2565b600080828154811061037c5761037b610b7f565b5b9060005260206000200160009054906101000a900473ffffffffffffffffffffffffffffffffffffffff169050919050565b6000600260009054906101000a900473ffffffffffffffffffffffffffffffffffffffff16905090565b60007f000000000000000000000000000000000000000000000000000000000000000073ffffffffffffffffffffffffffffffffffffffff16635d3b1d307f00000000000000000000000000000000000000000000000000000000000000007f000000000000000000000000000000000000000000000000000000000000000060037f000000000000000000000000000000000000000000000000000000000000000060016040518663ffffffff1660e01b815260040161049d959493929190610c52565b6020604051808303816000875af11580156104bc573d6000803e3d6000fd5b505050506040513d601f19601f820116820180604052508101906104e09190610cba565b9050807fcd6e45c8998311cab7e9d4385596cac867e20a0587194b954fa3a731c93ce78b60405160405180910390a250565b6060600180548060200260200160405190810160405280929190818152602001828054801561059657602002820191906000526020600020905b8160009054906101000a900473ffffffffffffffffffffffffffffffffffffffff1673ffffffffffffffffffffffffffffffffffffffff168152602001906001019080831161054c575b5050505050905090565b60008080549050826000815181106105bb576105ba610b7f565b5b60200260200101516105cd9190610d16565b905060008082815481106105e4576105e3610b7f565b5b9060005260206000200160009054906101000a900473ffffffffffffffffffffffffffffffffffffffff16905080600260006101000a81548173ffffffffffffffffffffffffffffffffffffffff021916908373ffffffffffffffffffffffffffffffffffffffff16021790555060008173ffffffffffffffffffffffffffffffffffffffff164760405161067890610d78565b60006040518083038185875af1925050503d80600081146106b5576040519150601f19603f3d011682016040523d82523d6000602084013e6106ba565b606091505b50509050806106f5576040517fef3279bc00000000000000000000000000000000000000000000000000000000815260040160405180910390fd5b6001600260009054906101000a900473ffffffffffffffffffffffffffffffffffffffff169080600181540180825580915050600190039060005260206000200160009091909190916101000a81548173ffffffffffffffffffffffffffffffffffffffff021916908373ffffffffffffffffffffffffffffffffffffffff16021790555060016040516107899190610eab565b60405180910390207f25f41bb500436b60823d3ac90c8445e63b823240530d3f308dc7202a3692092860405160405180910390a25050505050565b6000819050919050565b6107d7816107c4565b82525050565b60006020820190506107f260008301846107ce565b92915050565b6000604051905090565b600080fd5b600080fd5b610815816107c4565b811461082057600080fd5b50565b6000813590506108328161080c565b92915050565b600080fd5b6000601f19601f8301169050919050565b7f4e487b7100000000000000000000000000000000000000000000000000000000600052604160045260246000fd5b6108868261083d565b810181811067ffffffffffffffff821117156108a5576108a461084e565b5b80604052505050565b60006108b86107f8565b90506108c4828261087d565b919050565b600067ffffffffffffffff8211156108e4576108e361084e565b5b602082029050602081019050919050565b600080fd5b600061090d610908846108c9565b6108ae565b905080838252602082019050602084028301858111156109305761092f6108f5565b5b835b8181101561095957806109458882610823565b845260208401935050602081019050610932565b5050509392505050565b600082601f83011261097857610977610838565b5b81356109888482602086016108fa565b91505092915050565b600080604083850312156109a8576109a7610802565b5b60006109b685828601610823565b925050602083013567ffffffffffffffff8111156109d7576109d6610807565b5b6109e385828601610963565b9150509250929050565b600060208284031215610a0357610a02610802565b5b6000610a1184828501610823565b91505092915050565b600073ffffffffffffffffffffffffffffffffffffffff82169050919050565b6000610a4582610a1a565b9050919050565b610a5581610a3a565b82525050565b6000602082019050610a706000830184610a4c565b92915050565b600081519050919050565b600082825260208201905092915050565b6000819050602082019050919050565b610aab81610a3a565b82525050565b6000610abd8383610aa2565b60208301905092915050565b6000602082019050919050565b6000610ae182610a76565b610aeb8185610a81565b9350610af683610a92565b8060005b83811015610b27578151610b0e8882610ab1565b9750610b1983610ac9565b925050600181019050610afa565b5085935050505092915050565b60006020820190508181036000830152610b4e8184610ad6565b905092915050565b6000604082019050610b6b6000830185610a4c565b610b786020830184610a4c565b9392505050565b7f4e487b7100000000000000000000000000000000000000000000000000000000600052603260045260246000fd5b6000819050919050565b610bc181610bae565b82525050565b600061ffff82169050919050565b600067ffffffffffffffff82169050919050565b6000819050919050565b6000610c0e610c09610c0484610bc7565b610be9565b610bd5565b9050919050565b610c1e81610bf3565b82525050565b610c2d81610bc7565b82525050565b600063ffffffff82169050919050565b610c4c81610c33565b82525050565b600060a082019050610c676000830188610bb8565b610c746020830187610c15565b610c816040830186610c24565b610c8e6060830185610c43565b610c9b6080830184610c43565b9695505050505050565b600081519050610cb48161080c565b92915050565b600060208284031215610cd057610ccf610802565b5b6000610cde84828501610ca5565b91505092915050565b7f4e487b7100000000000000000000000000000000000000000000000000000000600052601260045260246000fd5b6000610d21826107c4565b9150610d2c836107c4565b925082610d3c57610d3b610ce7565b5b828206905092915050565b600081905092915050565b50565b6000610d62600083610d47565b9150610d6d82610d52565b600082019050919050565b6000610d8382610d55565b9150819050919050565b600081549050919050565b600081905092915050565b60008190508160005260206000209050919050565b610dc181610a3a565b82525050565b6000610dd38383610db8565b60208301905092915050565b60008160001c9050919050565b600073ffffffffffffffffffffffffffffffffffffffff82169050919050565b6000610e1f610e1a83610ddf565b610dec565b9050919050565b6000610e328254610e0c565b9050919050565b6000600182019050919050565b6000610e5182610d8d565b610e5b8185610d98565b9350610e6683610da3565b8060005b83811015610e9e57610e7b82610e26565b610e858882610dc7565b9750610e9083610e39565b925050600181019050610e6a565b5085935050505092915050565b6000610eb78284610e46565b91508190509291505056fea2646970667358221220d8edde7e67f108f73c75961f29971565f0a10b1b7d94657ada72965633a153fc64736f6c63430008130033",
  "linkReferences": {},
  "deployedLinkReferences": {}
}