{
  "_format": "hh-sol-artifact-1",
  "contractName": "Raffle",
  "sourceName": "contracts/Raffle.sol",
  "abi": [
    {
      "inputs": [
        {
          "internalType": "address",
          "name": "vrfCoordinatorV2",
          "type": "address"
        },
        {
          "internalType": "uint256",
          "name": "entrancefee",
          "type": "uint256"
        },
        {
          "internalType": "bytes32",
          "name": "gasLane",
          "type": "bytes32"
        },
        {
          "internalType": "uint16",
          "name": "subscription",
          "type": "uint16"
        },
        {
          "internalType": "uint32",
          "name": "callbackGasLimit",
          "type": "uint32"
        },
        {
          "internalType": "uint256",
          "name": "interval",
          "type": "uint256"
        }
      ],
      "stateMutability": "nonpayable",
      "type": "constructor"
    },
    {
      "inputs": [
        {
          "internalType": "address",
          "name": "have",
          "type": "address"
        },
        {
          "internalType": "address",
          "name": "want",
          "type": "address"
        }
      ],
      "name": "OnlyCoordinatorCanFulfill",
      "type": "error"
    },
    {
      "inputs": [],
      "name": "Raffle__NotEnoughtETH",
      "type": "error"
    },
    {
      "inputs": [],
      "name": "Raffle__RaflleIsClosed",
      "type": "error"
    },
    {
      "inputs": [],
      "name": "Raffle___WithdrawalFailed",
      "type": "error"
    },
    {
      "inputs": [
        {
          "internalType": "uint256",
          "name": "currentBalance",
          "type": "uint256"
        },
        {
          "internalType": "uint256",
          "name": "numberOfPlayers",
          "type": "uint256"
        },
        {
          "internalType": "uint256",
          "name": "raffleState",
          "type": "uint256"
        }
      ],
      "name": "Raffle__upKeepNotNeeded",
      "type": "error"
    },
    {
      "anonymous": false,
      "inputs": [
        {
          "indexed": true,
          "internalType": "address",
          "name": "player",
          "type": "address"
        }
      ],
      "name": "RaffleEnter",
      "type": "event"
    },
    {
      "anonymous": false,
      "inputs": [
        {
          "indexed": true,
          "internalType": "uint256",
          "name": "requestId",
          "type": "uint256"
        }
      ],
      "name": "RequestedRaffleWinner",
      "type": "event"
    },
    {
      "anonymous": false,
      "inputs": [
        {
          "indexed": true,
          "internalType": "address[]",
          "name": "winners",
          "type": "address[]"
        }
      ],
      "name": "RequestedRaffleWinners",
      "type": "event"
    },
    {
      "inputs": [
        {
          "internalType": "bytes",
          "name": "",
          "type": "bytes"
        }
      ],
      "name": "checkUpkeep",
      "outputs": [
        {
          "internalType": "bool",
          "name": "upKeepNeeded",
          "type": "bool"
        },
        {
          "internalType": "bytes",
          "name": "",
          "type": "bytes"
        }
      ],
      "stateMutability": "view",
      "type": "function"
    },
    {
      "inputs": [],
      "name": "enterRaffle",
      "outputs": [],
      "stateMutability": "payable",
      "type": "function"
    },
    {
      "inputs": [],
      "name": "getEntranceFee",
      "outputs": [
        {
          "internalType": "uint256",
          "name": "",
          "type": "uint256"
        }
      ],
      "stateMutability": "view",
      "type": "function"
    },
    {
      "inputs": [
        {
          "internalType": "uint256",
          "name": "index",
          "type": "uint256"
        }
      ],
      "name": "getPlayers",
      "outputs": [
        {
          "internalType": "address",
          "name": "",
          "type": "address"
        }
      ],
      "stateMutability": "view",
      "type": "function"
    },
    {
      "inputs": [],
      "name": "getRecentWinner",
      "outputs": [
        {
          "internalType": "address",
          "name": "",
          "type": "address"
        }
      ],
      "stateMutability": "view",
      "type": "function"
    },
    {
      "inputs": [],
      "name": "getWinners",
      "outputs": [
        {
          "internalType": "address[]",
          "name": "",
          "type": "address[]"
        }
      ],
      "stateMutability": "view",
      "type": "function"
    },
    {
      "inputs": [
        {
          "internalType": "bytes",
          "name": "",
          "type": "bytes"
        }
      ],
      "name": "performUpkeep",
      "outputs": [],
      "stateMutability": "nonpayable",
      "type": "function"
    },
    {
      "inputs": [
        {
          "internalType": "uint256",
          "name": "requestId",
          "type": "uint256"
        },
        {
          "internalType": "uint256[]",
          "name": "randomWords",
          "type": "uint256[]"
        }
      ],
      "name": "rawFulfillRandomWords",
      "outputs": [],
      "stateMutability": "nonpayable",
      "type": "function"
    }
  ],
  "bytecode": "0x6101606040523480156200001257600080fd5b506040516200198738038062001987833981810160405281019062000038919062000282565b858073ffffffffffffffffffffffffffffffffffffffff1660808173ffffffffffffffffffffffffffffffffffffffff1681525050508573ffffffffffffffffffffffffffffffffffffffff1660c08173ffffffffffffffffffffffffffffffffffffffff16815250508460a081815250508360e081815250508261ffff166101008161ffff16815250508163ffffffff166101208163ffffffff16815250506000600260146101000a81548160ff021916908360018111156200010157620001006200031e565b5b0217905550426003819055508061014081815250505050505050506200034d565b600080fd5b600073ffffffffffffffffffffffffffffffffffffffff82169050919050565b6000620001548262000127565b9050919050565b620001668162000147565b81146200017257600080fd5b50565b60008151905062000186816200015b565b92915050565b6000819050919050565b620001a1816200018c565b8114620001ad57600080fd5b50565b600081519050620001c18162000196565b92915050565b6000819050919050565b620001dc81620001c7565b8114620001e857600080fd5b50565b600081519050620001fc81620001d1565b92915050565b600061ffff82169050919050565b6200021b8162000202565b81146200022757600080fd5b50565b6000815190506200023b8162000210565b92915050565b600063ffffffff82169050919050565b6200025c8162000241565b81146200026857600080fd5b50565b6000815190506200027c8162000251565b92915050565b60008060008060008060c08789031215620002a257620002a162000122565b5b6000620002b289828a0162000175565b9650506020620002c589828a01620001b0565b9550506040620002d889828a01620001eb565b9450506060620002eb89828a016200022a565b9350506080620002fe89828a016200026b565b92505060a06200031189828a01620001b0565b9150509295509295509295565b7f4e487b7100000000000000000000000000000000000000000000000000000000600052602160045260246000fd5b60805160a05160c05160e0516101005161012051610140516115d1620003b660003960006106fa0152600061058d0152600061056a015260006105490152600061050d0152600081816101dc015261032f015260008181610202015261025601526115d16000f3fe60806040526004361061007b5760003560e01c8063460e20491161004e578063460e204914610107578063473f1ddc146101445780636e04ff0d1461016f578063df15c37e146101ad5761007b565b806309bc33a7146100805780631fe543e3146100ab5780632cfcc539146100d45780634585e33b146100de575b600080fd5b34801561008c57600080fd5b506100956101d8565b6040516100a29190610b7d565b60405180910390f35b3480156100b757600080fd5b506100d260048036038101906100cd9190610d31565b610200565b005b6100dc6102c0565b005b3480156100ea57600080fd5b5061010560048036038101906101009190610de8565b61042f565b005b34801561011357600080fd5b5061012e60048036038101906101299190610e35565b610646565b60405161013b9190610ea3565b60405180910390f35b34801561015057600080fd5b5061015961068d565b6040516101669190610ea3565b60405180910390f35b34801561017b57600080fd5b5061019660048036038101906101919190610f73565b6106b7565b6040516101a4929190611056565b60405180910390f35b3480156101b957600080fd5b506101c2610779565b6040516101cf9190611144565b60405180910390f35b60007f0000000000000000000000000000000000000000000000000000000000000000905090565b7f000000000000000000000000000000000000000000000000000000000000000073ffffffffffffffffffffffffffffffffffffffff163373ffffffffffffffffffffffffffffffffffffffff16146102b257337f00000000000000000000000000000000000000000000000000000000000000006040517f1cf993f40000000000000000000000000000000000000000000000000000000081526004016102a9929190611166565b60405180910390fd5b6102bc8282610807565b5050565b600060018111156102d4576102d361118f565b5b600260149054906101000a900460ff1660018111156102f6576102f561118f565b5b1461032d576040517fe64195df00000000000000000000000000000000000000000000000000000000815260040160405180910390fd5b7f0000000000000000000000000000000000000000000000000000000000000000341015610387576040517f3284cf4500000000000000000000000000000000000000000000000000000000815260040160405180910390fd5b6000339080600181540180825580915050600190039060005260206000200160009091909190916101000a81548173ffffffffffffffffffffffffffffffffffffffff021916908373ffffffffffffffffffffffffffffffffffffffff1602179055503373ffffffffffffffffffffffffffffffffffffffff167f0805e1d667bddb8a95f0f09880cf94f403fb596ce79928d9f29b74203ba284d460405160405180910390a2565b600061046f6040518060400160405280600181526020017f20000000000000000000000000000000000000000000000000000000000000008152506106b7565b509050806104de5747600080549050600260149054906101000a900460ff1660018111156104a05761049f61118f565b5b6040517f43df4e3d0000000000000000000000000000000000000000000000000000000081526004016104d5939291906111be565b60405180910390fd5b6001600260146101000a81548160ff021916908360018111156105045761050361118f565b5b021790555060007f000000000000000000000000000000000000000000000000000000000000000073ffffffffffffffffffffffffffffffffffffffff16635d3b1d307f00000000000000000000000000000000000000000000000000000000000000007f000000000000000000000000000000000000000000000000000000000000000060037f000000000000000000000000000000000000000000000000000000000000000060016040518663ffffffff1660e01b81526004016105ce959493929190611299565b6020604051808303816000875af11580156105ed573d6000803e3d6000fd5b505050506040513d601f19601f820116820180604052508101906106119190611301565b9050807fcd6e45c8998311cab7e9d4385596cac867e20a0587194b954fa3a731c93ce78b60405160405180910390a250505050565b600080828154811061065b5761065a61132e565b5b9060005260206000200160009054906101000a900473ffffffffffffffffffffffffffffffffffffffff169050919050565b6000600260009054906101000a900473ffffffffffffffffffffffffffffffffffffffff16905090565b600060606000600260149054906101000a900460ff1660018111156106df576106de61118f565b5b600060018111156106f3576106f261118f565b5b14905060007f000000000000000000000000000000000000000000000000000000000000000060035442610727919061138c565b119050600080600080549050119050600080471190508380156107475750825b80156107505750815b80156107595750805b955085604051806020016040528060008152509550955050505050915091565b606060018054806020026020016040519081016040528092919081815260200182805480156107fd57602002820191906000526020600020905b8160009054906101000a900473ffffffffffffffffffffffffffffffffffffffff1673ffffffffffffffffffffffffffffffffffffffff16815260200190600101908083116107b3575b5050505050905090565b60008080549050826000815181106108225761082161132e565b5b602002602001015161083491906113ef565b9050600080828154811061084b5761084a61132e565b5b9060005260206000200160009054906101000a900473ffffffffffffffffffffffffffffffffffffffff16905080600260006101000a81548173ffffffffffffffffffffffffffffffffffffffff021916908373ffffffffffffffffffffffffffffffffffffffff1602179055506000600260146101000a81548160ff021916908360018111156108df576108de61118f565b5b0217905550600067ffffffffffffffff8111156108ff576108fe610bee565b5b60405190808252806020026020018201604052801561092d5781602001602082028036833780820191505090505b5060009080519060200190610943929190610abd565b504260038190555060008173ffffffffffffffffffffffffffffffffffffffff164760405161097190611451565b60006040518083038185875af1925050503d80600081146109ae576040519150601f19603f3d011682016040523d82523d6000602084013e6109b3565b606091505b50509050806109ee576040517fef3279bc00000000000000000000000000000000000000000000000000000000815260040160405180910390fd5b6001600260009054906101000a900473ffffffffffffffffffffffffffffffffffffffff169080600181540180825580915050600190039060005260206000200160009091909190916101000a81548173ffffffffffffffffffffffffffffffffffffffff021916908373ffffffffffffffffffffffffffffffffffffffff1602179055506001604051610a829190611584565b60405180910390207f25f41bb500436b60823d3ac90c8445e63b823240530d3f308dc7202a3692092860405160405180910390a25050505050565b828054828255906000526020600020908101928215610b36579160200282015b82811115610b355782518260006101000a81548173ffffffffffffffffffffffffffffffffffffffff021916908373ffffffffffffffffffffffffffffffffffffffff16021790555091602001919060010190610add565b5b509050610b439190610b47565b5090565b5b80821115610b60576000816000905550600101610b48565b5090565b6000819050919050565b610b7781610b64565b82525050565b6000602082019050610b926000830184610b6e565b92915050565b6000604051905090565b600080fd5b600080fd5b610bb581610b64565b8114610bc057600080fd5b50565b600081359050610bd281610bac565b92915050565b600080fd5b6000601f19601f8301169050919050565b7f4e487b7100000000000000000000000000000000000000000000000000000000600052604160045260246000fd5b610c2682610bdd565b810181811067ffffffffffffffff82111715610c4557610c44610bee565b5b80604052505050565b6000610c58610b98565b9050610c648282610c1d565b919050565b600067ffffffffffffffff821115610c8457610c83610bee565b5b602082029050602081019050919050565b600080fd5b6000610cad610ca884610c69565b610c4e565b90508083825260208201905060208402830185811115610cd057610ccf610c95565b5b835b81811015610cf95780610ce58882610bc3565b845260208401935050602081019050610cd2565b5050509392505050565b600082601f830112610d1857610d17610bd8565b5b8135610d28848260208601610c9a565b91505092915050565b60008060408385031215610d4857610d47610ba2565b5b6000610d5685828601610bc3565b925050602083013567ffffffffffffffff811115610d7757610d76610ba7565b5b610d8385828601610d03565b9150509250929050565b600080fd5b60008083601f840112610da857610da7610bd8565b5b8235905067ffffffffffffffff811115610dc557610dc4610d8d565b5b602083019150836001820283011115610de157610de0610c95565b5b9250929050565b60008060208385031215610dff57610dfe610ba2565b5b600083013567ffffffffffffffff811115610e1d57610e1c610ba7565b5b610e2985828601610d92565b92509250509250929050565b600060208284031215610e4b57610e4a610ba2565b5b6000610e5984828501610bc3565b91505092915050565b600073ffffffffffffffffffffffffffffffffffffffff82169050919050565b6000610e8d82610e62565b9050919050565b610e9d81610e82565b82525050565b6000602082019050610eb86000830184610e94565b92915050565b600080fd5b600067ffffffffffffffff821115610ede57610edd610bee565b5b610ee782610bdd565b9050602081019050919050565b82818337600083830152505050565b6000610f16610f1184610ec3565b610c4e565b905082815260208101848484011115610f3257610f31610ebe565b5b610f3d848285610ef4565b509392505050565b600082601f830112610f5a57610f59610bd8565b5b8135610f6a848260208601610f03565b91505092915050565b600060208284031215610f8957610f88610ba2565b5b600082013567ffffffffffffffff811115610fa757610fa6610ba7565b5b610fb384828501610f45565b91505092915050565b60008115159050919050565b610fd181610fbc565b82525050565b600081519050919050565b600082825260208201905092915050565b60005b83811015611011578082015181840152602081019050610ff6565b60008484015250505050565b600061102882610fd7565b6110328185610fe2565b9350611042818560208601610ff3565b61104b81610bdd565b840191505092915050565b600060408201905061106b6000830185610fc8565b818103602083015261107d818461101d565b90509392505050565b600081519050919050565b600082825260208201905092915050565b6000819050602082019050919050565b6110bb81610e82565b82525050565b60006110cd83836110b2565b60208301905092915050565b6000602082019050919050565b60006110f182611086565b6110fb8185611091565b9350611106836110a2565b8060005b8381101561113757815161111e88826110c1565b9750611129836110d9565b92505060018101905061110a565b5085935050505092915050565b6000602082019050818103600083015261115e81846110e6565b905092915050565b600060408201905061117b6000830185610e94565b6111886020830184610e94565b9392505050565b7f4e487b7100000000000000000000000000000000000000000000000000000000600052602160045260246000fd5b60006060820190506111d36000830186610b6e565b6111e06020830185610b6e565b6111ed6040830184610b6e565b949350505050565b6000819050919050565b611208816111f5565b82525050565b600061ffff82169050919050565b600067ffffffffffffffff82169050919050565b6000819050919050565b600061125561125061124b8461120e565b611230565b61121c565b9050919050565b6112658161123a565b82525050565b6112748161120e565b82525050565b600063ffffffff82169050919050565b6112938161127a565b82525050565b600060a0820190506112ae60008301886111ff565b6112bb602083018761125c565b6112c8604083018661126b565b6112d5606083018561128a565b6112e2608083018461128a565b9695505050505050565b6000815190506112fb81610bac565b92915050565b60006020828403121561131757611316610ba2565b5b6000611325848285016112ec565b91505092915050565b7f4e487b7100000000000000000000000000000000000000000000000000000000600052603260045260246000fd5b7f4e487b7100000000000000000000000000000000000000000000000000000000600052601160045260246000fd5b600061139782610b64565b91506113a283610b64565b92508282039050818111156113ba576113b961135d565b5b92915050565b7f4e487b7100000000000000000000000000000000000000000000000000000000600052601260045260246000fd5b60006113fa82610b64565b915061140583610b64565b925082611415576114146113c0565b5b828206905092915050565b600081905092915050565b50565b600061143b600083611420565b91506114468261142b565b600082019050919050565b600061145c8261142e565b9150819050919050565b600081549050919050565b600081905092915050565b60008190508160005260206000209050919050565b61149a81610e82565b82525050565b60006114ac8383611491565b60208301905092915050565b60008160001c9050919050565b600073ffffffffffffffffffffffffffffffffffffffff82169050919050565b60006114f86114f3836114b8565b6114c5565b9050919050565b600061150b82546114e5565b9050919050565b6000600182019050919050565b600061152a82611466565b6115348185611471565b935061153f8361147c565b8060005b8381101561157757611554826114ff565b61155e88826114a0565b975061156983611512565b925050600181019050611543565b5085935050505092915050565b6000611590828461151f565b91508190509291505056fea2646970667358221220aeea8fa33a62309b5a6325806c2bac48c1b0206610bb2ef49060f8848ce73c2964736f6c63430008130033",
  "linkReferences": {},
  "deployedLinkReferences": {}
}