{
  "address": "0x3C13be58A557876AcaE4f3FD8BDAE456B974fa97",
  "abi": [
    {
      "inputs": [
        {
          "internalType": "address",
          "name": "vrfCoordinatorV2",
          "type": "address"
        },
        {
          "internalType": "uint256",
          "name": "entrancefee",
          "type": "uint256"
        },
        {
          "internalType": "bytes32",
          "name": "gasLane",
          "type": "bytes32"
        },
        {
          "internalType": "uint16",
          "name": "subscription",
          "type": "uint16"
        },
        {
          "internalType": "uint32",
          "name": "callbackGasLimit",
          "type": "uint32"
        },
        {
          "internalType": "uint256",
          "name": "interval",
          "type": "uint256"
        }
      ],
      "stateMutability": "nonpayable",
      "type": "constructor"
    },
    {
      "inputs": [
        {
          "internalType": "address",
          "name": "have",
          "type": "address"
        },
        {
          "internalType": "address",
          "name": "want",
          "type": "address"
        }
      ],
      "name": "OnlyCoordinatorCanFulfill",
      "type": "error"
    },
    {
      "inputs": [],
      "name": "Raffle__NotEnoughtETH",
      "type": "error"
    },
    {
      "inputs": [],
      "name": "Raffle__RaflleIsClosed",
      "type": "error"
    },
    {
      "inputs": [],
      "name": "Raffle___WithdrawalFailed",
      "type": "error"
    },
    {
      "inputs": [
        {
          "internalType": "uint256",
          "name": "currentBalance",
          "type": "uint256"
        },
        {
          "internalType": "uint256",
          "name": "numberOfPlayers",
          "type": "uint256"
        },
        {
          "internalType": "uint256",
          "name": "raffleState",
          "type": "uint256"
        }
      ],
      "name": "Raffle__upKeepNotNeeded",
      "type": "error"
    },
    {
      "anonymous": false,
      "inputs": [
        {
          "indexed": true,
          "internalType": "address",
          "name": "player",
          "type": "address"
        }
      ],
      "name": "RaffleEnter",
      "type": "event"
    },
    {
      "anonymous": false,
      "inputs": [
        {
          "indexed": true,
          "internalType": "uint256",
          "name": "requestId",
          "type": "uint256"
        }
      ],
      "name": "RequestedRaffleWinner",
      "type": "event"
    },
    {
      "anonymous": false,
      "inputs": [
        {
          "indexed": true,
          "internalType": "address[]",
          "name": "winners",
          "type": "address[]"
        }
      ],
      "name": "RequestedRaffleWinners",
      "type": "event"
    },
    {
      "inputs": [
        {
          "internalType": "bytes",
          "name": "",
          "type": "bytes"
        }
      ],
      "name": "checkUpkeep",
      "outputs": [
        {
          "internalType": "bool",
          "name": "upKeepNeeded",
          "type": "bool"
        },
        {
          "internalType": "bytes",
          "name": "",
          "type": "bytes"
        }
      ],
      "stateMutability": "view",
      "type": "function"
    },
    {
      "inputs": [],
      "name": "enterRaffle",
      "outputs": [],
      "stateMutability": "payable",
      "type": "function"
    },
    {
      "inputs": [],
      "name": "getEntranceFee",
      "outputs": [
        {
          "internalType": "uint256",
          "name": "",
          "type": "uint256"
        }
      ],
      "stateMutability": "view",
      "type": "function"
    },
    {
      "inputs": [],
      "name": "getInterval",
      "outputs": [
        {
          "internalType": "uint256",
          "name": "",
          "type": "uint256"
        }
      ],
      "stateMutability": "view",
      "type": "function"
    },
    {
      "inputs": [],
      "name": "getLatestTimestamp",
      "outputs": [
        {
          "internalType": "uint256",
          "name": "",
          "type": "uint256"
        }
      ],
      "stateMutability": "view",
      "type": "function"
    },
    {
      "inputs": [],
      "name": "getNumWords",
      "outputs": [
        {
          "internalType": "uint32",
          "name": "",
          "type": "uint32"
        }
      ],
      "stateMutability": "pure",
      "type": "function"
    },
    {
      "inputs": [],
      "name": "getNumberOfPlayers",
      "outputs": [
        {
          "internalType": "uint256",
          "name": "",
          "type": "uint256"
        }
      ],
      "stateMutability": "view",
      "type": "function"
    },
    {
      "inputs": [
        {
          "internalType": "uint256",
          "name": "index",
          "type": "uint256"
        }
      ],
      "name": "getPlayers",
      "outputs": [
        {
          "internalType": "address",
          "name": "",
          "type": "address"
        }
      ],
      "stateMutability": "view",
      "type": "function"
    },
    {
      "inputs": [],
      "name": "getRaffleState",
      "outputs": [
        {
          "internalType": "enum Raffle.RaffleState",
          "name": "",
          "type": "uint8"
        }
      ],
      "stateMutability": "view",
      "type": "function"
    },
    {
      "inputs": [],
      "name": "getRecentWinner",
      "outputs": [
        {
          "internalType": "address",
          "name": "",
          "type": "address"
        }
      ],
      "stateMutability": "view",
      "type": "function"
    },
    {
      "inputs": [],
      "name": "getWinners",
      "outputs": [
        {
          "internalType": "address[]",
          "name": "",
          "type": "address[]"
        }
      ],
      "stateMutability": "view",
      "type": "function"
    },
    {
      "inputs": [
        {
          "internalType": "bytes",
          "name": "",
          "type": "bytes"
        }
      ],
      "name": "performUpkeep",
      "outputs": [],
      "stateMutability": "nonpayable",
      "type": "function"
    },
    {
      "inputs": [
        {
          "internalType": "uint256",
          "name": "requestId",
          "type": "uint256"
        },
        {
          "internalType": "uint256[]",
          "name": "randomWords",
          "type": "uint256[]"
        }
      ],
      "name": "rawFulfillRandomWords",
      "outputs": [],
      "stateMutability": "nonpayable",
      "type": "function"
    }
  ],
  "transactionHash": "0x8c187e2c6cf025fb4ef6ae681065dad2109cd0402e40233ec1b96482ce5bd142",
  "args": [
    "0x2Ca8E0C643bDe4C2E08ab1fA0da3401AdAD7734D",
    "10000000000000000",
    "0x79d3d8832d904592c0bf9818b621522c988bb8b0c05cdc3b15aea1b6e8db0c15",
    "0",
    "500000",
    "30"
  ],
  "numDeployments": 1,
  "solcInputHash": "d57bed60e6389127e3b34d2edb47a3ab",
  "bytecode": "0x6101606040523480156200001257600080fd5b5060405162001b8838038062001b88833981810160405281019062000038919062000282565b858073ffffffffffffffffffffffffffffffffffffffff1660808173ffffffffffffffffffffffffffffffffffffffff1681525050508573ffffffffffffffffffffffffffffffffffffffff1660c08173ffffffffffffffffffffffffffffffffffffffff16815250508460a081815250508360e081815250508261ffff166101008161ffff16815250508163ffffffff166101208163ffffffff16815250506000600260146101000a81548160ff021916908360018111156200010157620001006200031e565b5b0217905550426003819055508061014081815250505050505050506200034d565b600080fd5b600073ffffffffffffffffffffffffffffffffffffffff82169050919050565b6000620001548262000127565b9050919050565b620001668162000147565b81146200017257600080fd5b50565b60008151905062000186816200015b565b92915050565b6000819050919050565b620001a1816200018c565b8114620001ad57600080fd5b50565b600081519050620001c18162000196565b92915050565b6000819050919050565b620001dc81620001c7565b8114620001e857600080fd5b50565b600081519050620001fc81620001d1565b92915050565b600061ffff82169050919050565b6200021b8162000202565b81146200022757600080fd5b50565b6000815190506200023b8162000210565b92915050565b600063ffffffff82169050919050565b6200025c8162000241565b81146200026857600080fd5b50565b6000815190506200027c8162000251565b92915050565b60008060008060008060c08789031215620002a257620002a162000122565b5b6000620002b289828a0162000175565b9650506020620002c589828a01620001b0565b9550506040620002d889828a01620001eb565b9450506060620002eb89828a016200022a565b9350506080620002fe89828a016200026b565b92505060a06200031189828a01620001b0565b9150509295509295509295565b7f4e487b7100000000000000000000000000000000000000000000000000000000600052602160045260246000fd5b60805160a05160c05160e0516101005161012051610140516117cb620003bd6000396000818161083801526108bb015260006106c20152600061069f0152600061067e015260006106420152600081816102fa0152610464015260008181610337015261038b01526117cb6000f3fe6080604052600436106100c25760003560e01c8063473f1ddc1161007f57806391ad27b41161005957806391ad27b41461024a578063df15c37e14610275578063f43b52cb146102a0578063fd6673f5146102cb576100c2565b8063473f1ddc146101b657806353a2c19a146101e15780636e04ff0d1461020c576100c2565b806309bc33a7146100c7578063115cbaf5146100f25780631fe543e31461011d5780632cfcc539146101465780634585e33b14610150578063460e204914610179575b600080fd5b3480156100d357600080fd5b506100dc6102f6565b6040516100e99190610cf9565b60405180910390f35b3480156100fe57600080fd5b5061010761031e565b6040516101149190610d8b565b60405180910390f35b34801561012957600080fd5b50610144600480360381019061013f9190610f3f565b610335565b005b61014e6103f5565b005b34801561015c57600080fd5b5061017760048036038101906101729190610ff6565b610564565b005b34801561018557600080fd5b506101a0600480360381019061019b9190611043565b61077b565b6040516101ad91906110b1565b60405180910390f35b3480156101c257600080fd5b506101cb6107c2565b6040516101d891906110b1565b60405180910390f35b3480156101ed57600080fd5b506101f66107ec565b60405161020391906110eb565b60405180910390f35b34801561021857600080fd5b50610233600480360381019061022e91906111bb565b6107f5565b60405161024192919061129e565b60405180910390f35b34801561025657600080fd5b5061025f6108b7565b60405161026c9190610cf9565b60405180910390f35b34801561028157600080fd5b5061028a6108df565b604051610297919061138c565b60405180910390f35b3480156102ac57600080fd5b506102b561096d565b6040516102c29190610cf9565b60405180910390f35b3480156102d757600080fd5b506102e0610977565b6040516102ed9190610cf9565b60405180910390f35b60007f0000000000000000000000000000000000000000000000000000000000000000905090565b6000600260149054906101000a900460ff16905090565b7f000000000000000000000000000000000000000000000000000000000000000073ffffffffffffffffffffffffffffffffffffffff163373ffffffffffffffffffffffffffffffffffffffff16146103e757337f00000000000000000000000000000000000000000000000000000000000000006040517f1cf993f40000000000000000000000000000000000000000000000000000000081526004016103de9291906113ae565b60405180910390fd5b6103f18282610983565b5050565b6000600181111561040957610408610d14565b5b600260149054906101000a900460ff16600181111561042b5761042a610d14565b5b14610462576040517fe64195df00000000000000000000000000000000000000000000000000000000815260040160405180910390fd5b7f00000000000000000000000000000000000000000000000000000000000000003410156104bc576040517f3284cf4500000000000000000000000000000000000000000000000000000000815260040160405180910390fd5b6000339080600181540180825580915050600190039060005260206000200160009091909190916101000a81548173ffffffffffffffffffffffffffffffffffffffff021916908373ffffffffffffffffffffffffffffffffffffffff1602179055503373ffffffffffffffffffffffffffffffffffffffff167f0805e1d667bddb8a95f0f09880cf94f403fb596ce79928d9f29b74203ba284d460405160405180910390a2565b60006105a46040518060400160405280600181526020017f20000000000000000000000000000000000000000000000000000000000000008152506107f5565b509050806106135747600080549050600260149054906101000a900460ff1660018111156105d5576105d4610d14565b5b6040517f43df4e3d00000000000000000000000000000000000000000000000000000000815260040161060a939291906113d7565b60405180910390fd5b6001600260146101000a81548160ff0219169083600181111561063957610638610d14565b5b021790555060007f000000000000000000000000000000000000000000000000000000000000000073ffffffffffffffffffffffffffffffffffffffff16635d3b1d307f00000000000000000000000000000000000000000000000000000000000000007f000000000000000000000000000000000000000000000000000000000000000060037f000000000000000000000000000000000000000000000000000000000000000060016040518663ffffffff1660e01b8152600401610703959493929190611493565b6020604051808303816000875af1158015610722573d6000803e3d6000fd5b505050506040513d601f19601f8201168201806040525081019061074691906114fb565b9050807fcd6e45c8998311cab7e9d4385596cac867e20a0587194b954fa3a731c93ce78b60405160405180910390a250505050565b60008082815481106107905761078f611528565b5b9060005260206000200160009054906101000a900473ffffffffffffffffffffffffffffffffffffffff169050919050565b6000600260009054906101000a900473ffffffffffffffffffffffffffffffffffffffff16905090565b60006001905090565b600060606000600260149054906101000a900460ff16600181111561081d5761081c610d14565b5b6000600181111561083157610830610d14565b5b14905060007f0000000000000000000000000000000000000000000000000000000000000000600354426108659190611586565b119050600080600080549050119050600080471190508380156108855750825b801561088e5750815b80156108975750805b955085604051806020016040528060008152509550955050505050915091565b60007f0000000000000000000000000000000000000000000000000000000000000000905090565b6060600180548060200260200160405190810160405280929190818152602001828054801561096357602002820191906000526020600020905b8160009054906101000a900473ffffffffffffffffffffffffffffffffffffffff1673ffffffffffffffffffffffffffffffffffffffff1681526020019060010190808311610919575b5050505050905090565b6000600354905090565b60008080549050905090565b600080805490508260008151811061099e5761099d611528565b5b60200260200101516109b091906115e9565b905060008082815481106109c7576109c6611528565b5b9060005260206000200160009054906101000a900473ffffffffffffffffffffffffffffffffffffffff16905080600260006101000a81548173ffffffffffffffffffffffffffffffffffffffff021916908373ffffffffffffffffffffffffffffffffffffffff1602179055506000600260146101000a81548160ff02191690836001811115610a5b57610a5a610d14565b5b0217905550600067ffffffffffffffff811115610a7b57610a7a610dfc565b5b604051908082528060200260200182016040528015610aa95781602001602082028036833780820191505090505b5060009080519060200190610abf929190610c39565b504260038190555060008173ffffffffffffffffffffffffffffffffffffffff1647604051610aed9061164b565b60006040518083038185875af1925050503d8060008114610b2a576040519150601f19603f3d011682016040523d82523d6000602084013e610b2f565b606091505b5050905080610b6a576040517fef3279bc00000000000000000000000000000000000000000000000000000000815260040160405180910390fd5b6001600260009054906101000a900473ffffffffffffffffffffffffffffffffffffffff169080600181540180825580915050600190039060005260206000200160009091909190916101000a81548173ffffffffffffffffffffffffffffffffffffffff021916908373ffffffffffffffffffffffffffffffffffffffff1602179055506001604051610bfe919061177e565b60405180910390207f25f41bb500436b60823d3ac90c8445e63b823240530d3f308dc7202a3692092860405160405180910390a25050505050565b828054828255906000526020600020908101928215610cb2579160200282015b82811115610cb15782518260006101000a81548173ffffffffffffffffffffffffffffffffffffffff021916908373ffffffffffffffffffffffffffffffffffffffff16021790555091602001919060010190610c59565b5b509050610cbf9190610cc3565b5090565b5b80821115610cdc576000816000905550600101610cc4565b5090565b6000819050919050565b610cf381610ce0565b82525050565b6000602082019050610d0e6000830184610cea565b92915050565b7f4e487b7100000000000000000000000000000000000000000000000000000000600052602160045260246000fd5b60028110610d5457610d53610d14565b5b50565b6000819050610d6582610d43565b919050565b6000610d7582610d57565b9050919050565b610d8581610d6a565b82525050565b6000602082019050610da06000830184610d7c565b92915050565b6000604051905090565b600080fd5b600080fd5b610dc381610ce0565b8114610dce57600080fd5b50565b600081359050610de081610dba565b92915050565b600080fd5b6000601f19601f8301169050919050565b7f4e487b7100000000000000000000000000000000000000000000000000000000600052604160045260246000fd5b610e3482610deb565b810181811067ffffffffffffffff82111715610e5357610e52610dfc565b5b80604052505050565b6000610e66610da6565b9050610e728282610e2b565b919050565b600067ffffffffffffffff821115610e9257610e91610dfc565b5b602082029050602081019050919050565b600080fd5b6000610ebb610eb684610e77565b610e5c565b90508083825260208201905060208402830185811115610ede57610edd610ea3565b5b835b81811015610f075780610ef38882610dd1565b845260208401935050602081019050610ee0565b5050509392505050565b600082601f830112610f2657610f25610de6565b5b8135610f36848260208601610ea8565b91505092915050565b60008060408385031215610f5657610f55610db0565b5b6000610f6485828601610dd1565b925050602083013567ffffffffffffffff811115610f8557610f84610db5565b5b610f9185828601610f11565b9150509250929050565b600080fd5b60008083601f840112610fb657610fb5610de6565b5b8235905067ffffffffffffffff811115610fd357610fd2610f9b565b5b602083019150836001820283011115610fef57610fee610ea3565b5b9250929050565b6000806020838503121561100d5761100c610db0565b5b600083013567ffffffffffffffff81111561102b5761102a610db5565b5b61103785828601610fa0565b92509250509250929050565b60006020828403121561105957611058610db0565b5b600061106784828501610dd1565b91505092915050565b600073ffffffffffffffffffffffffffffffffffffffff82169050919050565b600061109b82611070565b9050919050565b6110ab81611090565b82525050565b60006020820190506110c660008301846110a2565b92915050565b600063ffffffff82169050919050565b6110e5816110cc565b82525050565b600060208201905061110060008301846110dc565b92915050565b600080fd5b600067ffffffffffffffff82111561112657611125610dfc565b5b61112f82610deb565b9050602081019050919050565b82818337600083830152505050565b600061115e6111598461110b565b610e5c565b90508281526020810184848401111561117a57611179611106565b5b61118584828561113c565b509392505050565b600082601f8301126111a2576111a1610de6565b5b81356111b284826020860161114b565b91505092915050565b6000602082840312156111d1576111d0610db0565b5b600082013567ffffffffffffffff8111156111ef576111ee610db5565b5b6111fb8482850161118d565b91505092915050565b60008115159050919050565b61121981611204565b82525050565b600081519050919050565b600082825260208201905092915050565b60005b8381101561125957808201518184015260208101905061123e565b60008484015250505050565b60006112708261121f565b61127a818561122a565b935061128a81856020860161123b565b61129381610deb565b840191505092915050565b60006040820190506112b36000830185611210565b81810360208301526112c58184611265565b90509392505050565b600081519050919050565b600082825260208201905092915050565b6000819050602082019050919050565b61130381611090565b82525050565b600061131583836112fa565b60208301905092915050565b6000602082019050919050565b6000611339826112ce565b61134381856112d9565b935061134e836112ea565b8060005b8381101561137f5781516113668882611309565b975061137183611321565b925050600181019050611352565b5085935050505092915050565b600060208201905081810360008301526113a6818461132e565b905092915050565b60006040820190506113c360008301856110a2565b6113d060208301846110a2565b9392505050565b60006060820190506113ec6000830186610cea565b6113f96020830185610cea565b6114066040830184610cea565b949350505050565b6000819050919050565b6114218161140e565b82525050565b600061ffff82169050919050565b600067ffffffffffffffff82169050919050565b6000819050919050565b600061146e61146961146484611427565b611449565b611435565b9050919050565b61147e81611453565b82525050565b61148d81611427565b82525050565b600060a0820190506114a86000830188611418565b6114b56020830187611475565b6114c26040830186611484565b6114cf60608301856110dc565b6114dc60808301846110dc565b9695505050505050565b6000815190506114f581610dba565b92915050565b60006020828403121561151157611510610db0565b5b600061151f848285016114e6565b91505092915050565b7f4e487b7100000000000000000000000000000000000000000000000000000000600052603260045260246000fd5b7f4e487b7100000000000000000000000000000000000000000000000000000000600052601160045260246000fd5b600061159182610ce0565b915061159c83610ce0565b92508282039050818111156115b4576115b3611557565b5b92915050565b7f4e487b7100000000000000000000000000000000000000000000000000000000600052601260045260246000fd5b60006115f482610ce0565b91506115ff83610ce0565b92508261160f5761160e6115ba565b5b828206905092915050565b600081905092915050565b50565b600061163560008361161a565b915061164082611625565b600082019050919050565b600061165682611628565b9150819050919050565b600081549050919050565b600081905092915050565b60008190508160005260206000209050919050565b61169481611090565b82525050565b60006116a6838361168b565b60208301905092915050565b60008160001c9050919050565b600073ffffffffffffffffffffffffffffffffffffffff82169050919050565b60006116f26116ed836116b2565b6116bf565b9050919050565b600061170582546116df565b9050919050565b6000600182019050919050565b600061172482611660565b61172e818561166b565b935061173983611676565b8060005b838110156117715761174e826116f9565b611758888261169a565b97506117638361170c565b92505060018101905061173d565b5085935050505092915050565b600061178a8284611719565b91508190509291505056fea2646970667358221220ccef9d5835f4317f3610c60beea2995c9bfc2951225c7a3bc0e7bb1a80d34a0664736f6c63430008130033",
  "devdoc": {
    "author": "Olorunfemi Tayo",
    "details": "This implements chainlink VRF2 and chainlink keepers.",
    "kind": "dev",
    "methods": {},
    "title": "A sample Raffle Contract",
    "version": 1
  },
  "userdoc": {
    "kind": "user",
    "methods": {},
    "notice": "This contract is for creating a untamperable decentralized smart contract",
    "version": 1
  },
  "storageLayout": {
    "storage": [
      {
        "astId": 243,
        "contract": "contracts/Raffle.sol:Raffle",
        "label": "s_players",
        "offset": 0,
        "slot": "0",
        "type": "t_array(t_address_payable)dyn_storage"
      },
      {
        "astId": 261,
        "contract": "contracts/Raffle.sol:Raffle",
        "label": "s_winners",
        "offset": 0,
        "slot": "1",
        "type": "t_array(t_address)dyn_storage"
      },
      {
        "astId": 276,
        "contract": "contracts/Raffle.sol:Raffle",
        "label": "s_recentWinner",
        "offset": 0,
        "slot": "2",
        "type": "t_address"
      },
      {
        "astId": 279,
        "contract": "contracts/Raffle.sol:Raffle",
        "label": "s_raffleState",
        "offset": 20,
        "slot": "2",
        "type": "t_enum(RaffleState)238"
      },
      {
        "astId": 281,
        "contract": "contracts/Raffle.sol:Raffle",
        "label": "s_lastBlockTimeStamp",
        "offset": 0,
        "slot": "3",
        "type": "t_uint256"
      }
    ],
    "types": {
      "t_address": {
        "encoding": "inplace",
        "label": "address",
        "numberOfBytes": "20"
      },
      "t_address_payable": {
        "encoding": "inplace",
        "label": "address payable",
        "numberOfBytes": "20"
      },
      "t_array(t_address)dyn_storage": {
        "base": "t_address",
        "encoding": "dynamic_array",
        "label": "address[]",
        "numberOfBytes": "32"
      },
      "t_array(t_address_payable)dyn_storage": {
        "base": "t_address_payable",
        "encoding": "dynamic_array",
        "label": "address payable[]",
        "numberOfBytes": "32"
      },
      "t_enum(RaffleState)238": {
        "encoding": "inplace",
        "label": "enum Raffle.RaffleState",
        "numberOfBytes": "1"
      },
      "t_uint256": {
        "encoding": "inplace",
        "label": "uint256",
        "numberOfBytes": "32"
      }
    }
  }
}